{
  "address": "0xe7f1725E7734CE288F8367e1Bb143E90bb3F0512",
  "abi": [
    {
      "inputs": [
        {
          "internalType": "string",
          "name": "baseURI",
          "type": "string"
        }
      ],
      "stateMutability": "nonpayable",
      "type": "constructor"
    },
    {
      "anonymous": false,
      "inputs": [
        {
          "indexed": true,
          "internalType": "address",
          "name": "owner",
          "type": "address"
        },
        {
          "indexed": true,
          "internalType": "address",
          "name": "approved",
          "type": "address"
        },
        {
          "indexed": true,
          "internalType": "uint256",
          "name": "tokenId",
          "type": "uint256"
        }
      ],
      "name": "Approval",
      "type": "event"
    },
    {
      "anonymous": false,
      "inputs": [
        {
          "indexed": true,
          "internalType": "address",
          "name": "owner",
          "type": "address"
        },
        {
          "indexed": true,
          "internalType": "address",
          "name": "operator",
          "type": "address"
        },
        {
          "indexed": false,
          "internalType": "bool",
          "name": "approved",
          "type": "bool"
        }
      ],
      "name": "ApprovalForAll",
      "type": "event"
    },
    {
      "anonymous": false,
      "inputs": [
        {
          "indexed": true,
          "internalType": "address",
          "name": "previousOwner",
          "type": "address"
        },
        {
          "indexed": true,
          "internalType": "address",
          "name": "newOwner",
          "type": "address"
        }
      ],
      "name": "OwnershipTransferred",
      "type": "event"
    },
    {
      "anonymous": false,
      "inputs": [
        {
          "indexed": true,
          "internalType": "address",
          "name": "from",
          "type": "address"
        },
        {
          "indexed": true,
          "internalType": "address",
          "name": "to",
          "type": "address"
        },
        {
          "indexed": true,
          "internalType": "uint256",
          "name": "tokenId",
          "type": "uint256"
        }
      ],
      "name": "Transfer",
      "type": "event"
    },
    {
      "stateMutability": "payable",
      "type": "fallback"
    },
    {
      "inputs": [],
      "name": "_paused",
      "outputs": [
        {
          "internalType": "bool",
          "name": "",
          "type": "bool"
        }
      ],
      "stateMutability": "view",
      "type": "function"
    },
    {
      "inputs": [],
      "name": "_price",
      "outputs": [
        {
          "internalType": "uint256",
          "name": "",
          "type": "uint256"
        }
      ],
      "stateMutability": "view",
      "type": "function"
    },
    {
      "inputs": [
        {
          "internalType": "address",
          "name": "to",
          "type": "address"
        },
        {
          "internalType": "uint256",
          "name": "tokenId",
          "type": "uint256"
        }
      ],
      "name": "approve",
      "outputs": [],
      "stateMutability": "nonpayable",
      "type": "function"
    },
    {
      "inputs": [
        {
          "internalType": "address",
          "name": "owner",
          "type": "address"
        }
      ],
      "name": "balanceOf",
      "outputs": [
        {
          "internalType": "uint256",
          "name": "",
          "type": "uint256"
        }
      ],
      "stateMutability": "view",
      "type": "function"
    },
    {
      "inputs": [
        {
          "internalType": "uint256",
          "name": "tokenId",
          "type": "uint256"
        }
      ],
      "name": "getApproved",
      "outputs": [
        {
          "internalType": "address",
          "name": "",
          "type": "address"
        }
      ],
      "stateMutability": "view",
      "type": "function"
    },
    {
      "inputs": [
        {
          "internalType": "address",
          "name": "owner",
          "type": "address"
        },
        {
          "internalType": "address",
          "name": "operator",
          "type": "address"
        }
      ],
      "name": "isApprovedForAll",
      "outputs": [
        {
          "internalType": "bool",
          "name": "",
          "type": "bool"
        }
      ],
      "stateMutability": "view",
      "type": "function"
    },
    {
      "inputs": [],
      "name": "maxTokenIds",
      "outputs": [
        {
          "internalType": "uint256",
          "name": "",
          "type": "uint256"
        }
      ],
      "stateMutability": "view",
      "type": "function"
    },
    {
      "inputs": [],
      "name": "mint",
      "outputs": [],
      "stateMutability": "payable",
      "type": "function"
    },
    {
      "inputs": [],
      "name": "name",
      "outputs": [
        {
          "internalType": "string",
          "name": "",
          "type": "string"
        }
      ],
      "stateMutability": "view",
      "type": "function"
    },
    {
      "inputs": [],
      "name": "owner",
      "outputs": [
        {
          "internalType": "address",
          "name": "",
          "type": "address"
        }
      ],
      "stateMutability": "view",
      "type": "function"
    },
    {
      "inputs": [
        {
          "internalType": "uint256",
          "name": "tokenId",
          "type": "uint256"
        }
      ],
      "name": "ownerOf",
      "outputs": [
        {
          "internalType": "address",
          "name": "",
          "type": "address"
        }
      ],
      "stateMutability": "view",
      "type": "function"
    },
    {
      "inputs": [],
      "name": "renounceOwnership",
      "outputs": [],
      "stateMutability": "nonpayable",
      "type": "function"
    },
    {
      "inputs": [
        {
          "internalType": "address",
          "name": "from",
          "type": "address"
        },
        {
          "internalType": "address",
          "name": "to",
          "type": "address"
        },
        {
          "internalType": "uint256",
          "name": "tokenId",
          "type": "uint256"
        }
      ],
      "name": "safeTransferFrom",
      "outputs": [],
      "stateMutability": "nonpayable",
      "type": "function"
    },
    {
      "inputs": [
        {
          "internalType": "address",
          "name": "from",
          "type": "address"
        },
        {
          "internalType": "address",
          "name": "to",
          "type": "address"
        },
        {
          "internalType": "uint256",
          "name": "tokenId",
          "type": "uint256"
        },
        {
          "internalType": "bytes",
          "name": "data",
          "type": "bytes"
        }
      ],
      "name": "safeTransferFrom",
      "outputs": [],
      "stateMutability": "nonpayable",
      "type": "function"
    },
    {
      "inputs": [
        {
          "internalType": "address",
          "name": "operator",
          "type": "address"
        },
        {
          "internalType": "bool",
          "name": "approved",
          "type": "bool"
        }
      ],
      "name": "setApprovalForAll",
      "outputs": [],
      "stateMutability": "nonpayable",
      "type": "function"
    },
    {
      "inputs": [
        {
          "internalType": "bool",
          "name": "paused",
          "type": "bool"
        }
      ],
      "name": "setPaused",
      "outputs": [],
      "stateMutability": "nonpayable",
      "type": "function"
    },
    {
      "inputs": [
        {
          "internalType": "bytes4",
          "name": "interfaceId",
          "type": "bytes4"
        }
      ],
      "name": "supportsInterface",
      "outputs": [
        {
          "internalType": "bool",
          "name": "",
          "type": "bool"
        }
      ],
      "stateMutability": "view",
      "type": "function"
    },
    {
      "inputs": [],
      "name": "symbol",
      "outputs": [
        {
          "internalType": "string",
          "name": "",
          "type": "string"
        }
      ],
      "stateMutability": "view",
      "type": "function"
    },
    {
      "inputs": [
        {
          "internalType": "uint256",
          "name": "index",
          "type": "uint256"
        }
      ],
      "name": "tokenByIndex",
      "outputs": [
        {
          "internalType": "uint256",
          "name": "",
          "type": "uint256"
        }
      ],
      "stateMutability": "view",
      "type": "function"
    },
    {
      "inputs": [
        {
          "internalType": "address",
          "name": "owner",
          "type": "address"
        },
        {
          "internalType": "uint256",
          "name": "index",
          "type": "uint256"
        }
      ],
      "name": "tokenOfOwnerByIndex",
      "outputs": [
        {
          "internalType": "uint256",
          "name": "",
          "type": "uint256"
        }
      ],
      "stateMutability": "view",
      "type": "function"
    },
    {
      "inputs": [
        {
          "internalType": "uint256",
          "name": "tokenId",
          "type": "uint256"
        }
      ],
      "name": "tokenURI",
      "outputs": [
        {
          "internalType": "string",
          "name": "",
          "type": "string"
        }
      ],
      "stateMutability": "view",
      "type": "function"
    },
    {
      "inputs": [],
      "name": "totalSupply",
      "outputs": [
        {
          "internalType": "uint256",
          "name": "",
          "type": "uint256"
        }
      ],
      "stateMutability": "view",
      "type": "function"
    },
    {
      "inputs": [
        {
          "internalType": "address",
          "name": "from",
          "type": "address"
        },
        {
          "internalType": "address",
          "name": "to",
          "type": "address"
        },
        {
          "internalType": "uint256",
          "name": "tokenId",
          "type": "uint256"
        }
      ],
      "name": "transferFrom",
      "outputs": [],
      "stateMutability": "nonpayable",
      "type": "function"
    },
    {
      "inputs": [
        {
          "internalType": "address",
          "name": "newOwner",
          "type": "address"
        }
      ],
      "name": "transferOwnership",
      "outputs": [],
      "stateMutability": "nonpayable",
      "type": "function"
    },
    {
      "inputs": [],
      "name": "withDraw",
      "outputs": [],
      "stateMutability": "nonpayable",
      "type": "function"
    },
    {
      "stateMutability": "payable",
      "type": "receive"
    }
  ],
  "transactionHash": "0xd380f0e607007e359c223969dab9e300193293835abef45dbf428ee935bcdd43",
  "args": [
    "Qmbygo38DWF1V8GttM1zy89KzyZTPU2FLUzQtiDvB7q6i5"
  ],
  "numDeployments": 1,
  "solcInputHash": "53614a8ee81400dd057ee7b7b11e3c61",
  "bytecode": "0x6080604052662386f26fc10000600c55600a600e5534801561002057600080fd5b50604051613f88380380613f8883398181016040528101906100429190610345565b6040518060400160405280600a81526020017f43727970746f44657673000000000000000000000000000000000000000000008152506040518060400160405280600281526020017f434400000000000000000000000000000000000000000000000000000000000081525081600090816100bd91906105af565b5080600190816100cd91906105af565b5050506100ec6100e161010260201b60201c565b61010a60201b60201c565b80600b90816100fb91906105af565b5050610681565b600033905090565b6000600a60009054906101000a900473ffffffffffffffffffffffffffffffffffffffff16905081600a60006101000a81548173ffffffffffffffffffffffffffffffffffffffff021916908373ffffffffffffffffffffffffffffffffffffffff1602179055508173ffffffffffffffffffffffffffffffffffffffff168173ffffffffffffffffffffffffffffffffffffffff167f8be0079c531659141344cd1fd0a4f28419497f9722a3daafe3b4186f6b6457e060405160405180910390a35050565b6000604051905090565b600080fd5b600080fd5b600080fd5b600080fd5b6000601f19601f8301169050919050565b7f4e487b7100000000000000000000000000000000000000000000000000000000600052604160045260246000fd5b610237826101ee565b810181811067ffffffffffffffff82111715610256576102556101ff565b5b80604052505050565b60006102696101d0565b9050610275828261022e565b919050565b600067ffffffffffffffff821115610295576102946101ff565b5b61029e826101ee565b9050602081019050919050565b60005b838110156102c95780820151818401526020810190506102ae565b60008484015250505050565b60006102e86102e38461027a565b61025f565b905082815260208101848484011115610304576103036101e9565b5b61030f8482856102ab565b509392505050565b600082601f83011261032c5761032b6101e4565b5b815161033c8482602086016102d5565b91505092915050565b60006020828403121561035b5761035a6101da565b5b600082015167ffffffffffffffff811115610379576103786101df565b5b61038584828501610317565b91505092915050565b600081519050919050565b7f4e487b7100000000000000000000000000000000000000000000000000000000600052602260045260246000fd5b600060028204905060018216806103e057607f821691505b6020821081036103f3576103f2610399565b5b50919050565b60008190508160005260206000209050919050565b60006020601f8301049050919050565b600082821b905092915050565b60006008830261045b7fffffffffffffffffffffffffffffffffffffffffffffffffffffffffffffffff8261041e565b610465868361041e565b95508019841693508086168417925050509392505050565b6000819050919050565b6000819050919050565b60006104ac6104a76104a28461047d565b610487565b61047d565b9050919050565b6000819050919050565b6104c683610491565b6104da6104d2826104b3565b84845461042b565b825550505050565b600090565b6104ef6104e2565b6104fa8184846104bd565b505050565b5b8181101561051e576105136000826104e7565b600181019050610500565b5050565b601f82111561056357610534816103f9565b61053d8461040e565b8101602085101561054c578190505b6105606105588561040e565b8301826104ff565b50505b505050565b600082821c905092915050565b600061058660001984600802610568565b1980831691505092915050565b600061059f8383610575565b9150826002028217905092915050565b6105b88261038e565b67ffffffffffffffff8111156105d1576105d06101ff565b5b6105db82546103c8565b6105e6828285610522565b600060209050601f8311600181146106195760008415610607578287015190505b6106118582610593565b865550610679565b601f198416610627866103f9565b60005b8281101561064f5784890151825560018201915060208501945060208101905061062a565b8683101561066c5784890151610668601f891682610575565b8355505b6001600288020188555050505b505050505050565b6138f8806106906000396000f3fe60806040526004361061016a5760003560e01c806342842e0e116100d15780638da5cb5b1161008a578063b88d4fde11610064578063b88d4fde14610513578063c87b56dd1461053c578063e985e9c514610579578063f2fde38b146105b657610171565b80638da5cb5b1461049457806395d89b41146104bf578063a22cb465146104ea57610171565b806342842e0e146103725780634f6ccce71461039b5780635f769621146103d85780636352211e1461040357806370a0823114610440578063715018a61461047d57610171565b806316c38b3c1161012357806316c38b3c1461026257806316c61ccc1461028b57806318160ddd146102b6578063235b6ea1146102e157806323b872dd1461030c5780632f745c591461033557610171565b806301ffc9a71461017357806306fdde03146101b0578063081812fc146101db578063095ea7b3146102185780630fdb1c10146102415780631249c58b1461025857610171565b3661017157005b005b34801561017f57600080fd5b5061019a60048036038101906101959190612573565b6105df565b6040516101a791906125bb565b60405180910390f35b3480156101bc57600080fd5b506101c5610659565b6040516101d29190612666565b60405180910390f35b3480156101e757600080fd5b5061020260048036038101906101fd91906126be565b6106eb565b60405161020f919061272c565b60405180910390f35b34801561022457600080fd5b5061023f600480360381019061023a9190612773565b610731565b005b34801561024d57600080fd5b50610256610848565b005b610260610912565b005b34801561026e57600080fd5b50610289600480360381019061028491906127df565b610a0a565b005b34801561029757600080fd5b506102a0610a2f565b6040516102ad91906125bb565b60405180910390f35b3480156102c257600080fd5b506102cb610a42565b6040516102d8919061281b565b60405180910390f35b3480156102ed57600080fd5b506102f6610a4f565b604051610303919061281b565b60405180910390f35b34801561031857600080fd5b50610333600480360381019061032e9190612836565b610a55565b005b34801561034157600080fd5b5061035c60048036038101906103579190612773565b610ab5565b604051610369919061281b565b60405180910390f35b34801561037e57600080fd5b5061039960048036038101906103949190612836565b610b5a565b005b3480156103a757600080fd5b506103c260048036038101906103bd91906126be565b610b7a565b6040516103cf919061281b565b60405180910390f35b3480156103e457600080fd5b506103ed610beb565b6040516103fa919061281b565b60405180910390f35b34801561040f57600080fd5b5061042a600480360381019061042591906126be565b610bf1565b604051610437919061272c565b60405180910390f35b34801561044c57600080fd5b5061046760048036038101906104629190612889565b610c77565b604051610474919061281b565b60405180910390f35b34801561048957600080fd5b50610492610d2e565b005b3480156104a057600080fd5b506104a9610d42565b6040516104b6919061272c565b60405180910390f35b3480156104cb57600080fd5b506104d4610d6c565b6040516104e19190612666565b60405180910390f35b3480156104f657600080fd5b50610511600480360381019061050c91906128b6565b610dfe565b005b34801561051f57600080fd5b5061053a60048036038101906105359190612a2b565b610e14565b005b34801561054857600080fd5b50610563600480360381019061055e91906126be565b610e76565b6040516105709190612666565b60405180910390f35b34801561058557600080fd5b506105a0600480360381019061059b9190612aae565b610f1d565b6040516105ad91906125bb565b60405180910390f35b3480156105c257600080fd5b506105dd60048036038101906105d89190612889565b610fb1565b005b60007f780e9d63000000000000000000000000000000000000000000000000000000007bffffffffffffffffffffffffffffffffffffffffffffffffffffffff1916827bffffffffffffffffffffffffffffffffffffffffffffffffffffffff19161480610652575061065182611034565b5b9050919050565b60606000805461066890612b1d565b80601f016020809104026020016040519081016040528092919081815260200182805461069490612b1d565b80156106e15780601f106106b6576101008083540402835291602001916106e1565b820191906000526020600020905b8154815290600101906020018083116106c457829003601f168201915b5050505050905090565b60006106f682611116565b6004600083815260200190815260200160002060009054906101000a900473ffffffffffffffffffffffffffffffffffffffff169050919050565b600061073c82610bf1565b90508073ffffffffffffffffffffffffffffffffffffffff168373ffffffffffffffffffffffffffffffffffffffff16036107ac576040517f08c379a00000000000000000000000000000000000000000000000000000000081526004016107a390612bc0565b60405180910390fd5b8073ffffffffffffffffffffffffffffffffffffffff166107cb611161565b73ffffffffffffffffffffffffffffffffffffffff1614806107fa57506107f9816107f4611161565b610f1d565b5b610839576040517f08c379a000000000000000000000000000000000000000000000000000000000815260040161083090612c52565b60405180910390fd5b6108438383611169565b505050565b610850611222565b600061085a610d42565b9050600047905060008273ffffffffffffffffffffffffffffffffffffffff168260405161088790612ca3565b60006040518083038185875af1925050503d80600081146108c4576040519150601f19603f3d011682016040523d82523d6000602084013e6108c9565b606091505b505090508061090d576040517f08c379a000000000000000000000000000000000000000000000000000000000815260040161090490612d04565b60405180910390fd5b505050565b60001515600d60009054906101000a900460ff16151514610968576040517f08c379a000000000000000000000000000000000000000000000000000000000815260040161095f90612d96565b60405180910390fd5b6000610972610a42565b9050600e5481106109b8576040517f08c379a00000000000000000000000000000000000000000000000000000000081526004016109af90612e02565b60405180910390fd5b600c543410156109fd576040517f08c379a00000000000000000000000000000000000000000000000000000000081526004016109f490612e6e565b60405180910390fd5b610a0733826112a0565b50565b610a12611222565b80600d60006101000a81548160ff02191690831515021790555050565b600d60009054906101000a900460ff1681565b6000600880549050905090565b600c5481565b610a66610a60611161565b826112be565b610aa5576040517f08c379a0000000000000000000000000000000000000000000000000000000008152600401610a9c90612f00565b60405180910390fd5b610ab0838383611353565b505050565b6000610ac083610c77565b8210610b01576040517f08c379a0000000000000000000000000000000000000000000000000000000008152600401610af890612f92565b60405180910390fd5b600660008473ffffffffffffffffffffffffffffffffffffffff1673ffffffffffffffffffffffffffffffffffffffff168152602001908152602001600020600083815260200190815260200160002054905092915050565b610b7583838360405180602001604052806000815250610e14565b505050565b6000610b84610a42565b8210610bc5576040517f08c379a0000000000000000000000000000000000000000000000000000000008152600401610bbc90613024565b60405180910390fd5b60088281548110610bd957610bd8613044565b5b90600052602060002001549050919050565b600e5481565b600080610bfd8361164c565b9050600073ffffffffffffffffffffffffffffffffffffffff168173ffffffffffffffffffffffffffffffffffffffff1603610c6e576040517f08c379a0000000000000000000000000000000000000000000000000000000008152600401610c65906130bf565b60405180910390fd5b80915050919050565b60008073ffffffffffffffffffffffffffffffffffffffff168273ffffffffffffffffffffffffffffffffffffffff1603610ce7576040517f08c379a0000000000000000000000000000000000000000000000000000000008152600401610cde90613151565b60405180910390fd5b600360008373ffffffffffffffffffffffffffffffffffffffff1673ffffffffffffffffffffffffffffffffffffffff168152602001908152602001600020549050919050565b610d36611222565b610d406000611689565b565b6000600a60009054906101000a900473ffffffffffffffffffffffffffffffffffffffff16905090565b606060018054610d7b90612b1d565b80601f0160208091040260200160405190810160405280929190818152602001828054610da790612b1d565b8015610df45780601f10610dc957610100808354040283529160200191610df4565b820191906000526020600020905b815481529060010190602001808311610dd757829003601f168201915b5050505050905090565b610e10610e09611161565b838361174f565b5050565b610e25610e1f611161565b836112be565b610e64576040517f08c379a0000000000000000000000000000000000000000000000000000000008152600401610e5b90612f00565b60405180910390fd5b610e70848484846118bb565b50505050565b6060610e8182611917565b610ec0576040517f08c379a0000000000000000000000000000000000000000000000000000000008152600401610eb7906131bd565b60405180910390fd5b6000610eca611958565b90506000815111610eea5760405180602001604052806000815250610f15565b80610ef4846119ea565b604051602001610f05929190613265565b6040516020818303038152906040525b915050919050565b6000600560008473ffffffffffffffffffffffffffffffffffffffff1673ffffffffffffffffffffffffffffffffffffffff16815260200190815260200160002060008373ffffffffffffffffffffffffffffffffffffffff1673ffffffffffffffffffffffffffffffffffffffff16815260200190815260200160002060009054906101000a900460ff16905092915050565b610fb9611222565b600073ffffffffffffffffffffffffffffffffffffffff168173ffffffffffffffffffffffffffffffffffffffff1603611028576040517f08c379a000000000000000000000000000000000000000000000000000000000815260040161101f90613306565b60405180910390fd5b61103181611689565b50565b60007f80ac58cd000000000000000000000000000000000000000000000000000000007bffffffffffffffffffffffffffffffffffffffffffffffffffffffff1916827bffffffffffffffffffffffffffffffffffffffffffffffffffffffff191614806110ff57507f5b5e139f000000000000000000000000000000000000000000000000000000007bffffffffffffffffffffffffffffffffffffffffffffffffffffffff1916827bffffffffffffffffffffffffffffffffffffffffffffffffffffffff1916145b8061110f575061110e82611ab8565b5b9050919050565b61111f81611917565b61115e576040517f08c379a0000000000000000000000000000000000000000000000000000000008152600401611155906130bf565b60405180910390fd5b50565b600033905090565b816004600083815260200190815260200160002060006101000a81548173ffffffffffffffffffffffffffffffffffffffff021916908373ffffffffffffffffffffffffffffffffffffffff160217905550808273ffffffffffffffffffffffffffffffffffffffff166111dc83610bf1565b73ffffffffffffffffffffffffffffffffffffffff167f8c5be1e5ebec7d5bd14f71427d1e84f3dd0314c0f7b2291e5b200ac8c7c3b92560405160405180910390a45050565b61122a611161565b73ffffffffffffffffffffffffffffffffffffffff16611248610d42565b73ffffffffffffffffffffffffffffffffffffffff161461129e576040517f08c379a000000000000000000000000000000000000000000000000000000000815260040161129590613372565b60405180910390fd5b565b6112ba828260405180602001604052806000815250611b22565b5050565b6000806112ca83610bf1565b90508073ffffffffffffffffffffffffffffffffffffffff168473ffffffffffffffffffffffffffffffffffffffff16148061130c575061130b8185610f1d565b5b8061134a57508373ffffffffffffffffffffffffffffffffffffffff16611332846106eb565b73ffffffffffffffffffffffffffffffffffffffff16145b91505092915050565b8273ffffffffffffffffffffffffffffffffffffffff1661137382610bf1565b73ffffffffffffffffffffffffffffffffffffffff16146113c9576040517f08c379a00000000000000000000000000000000000000000000000000000000081526004016113c090613404565b60405180910390fd5b600073ffffffffffffffffffffffffffffffffffffffff168273ffffffffffffffffffffffffffffffffffffffff1603611438576040517f08c379a000000000000000000000000000000000000000000000000000000000815260040161142f90613496565b60405180910390fd5b6114458383836001611b7d565b8273ffffffffffffffffffffffffffffffffffffffff1661146582610bf1565b73ffffffffffffffffffffffffffffffffffffffff16146114bb576040517f08c379a00000000000000000000000000000000000000000000000000000000081526004016114b290613404565b60405180910390fd5b6004600082815260200190815260200160002060006101000a81549073ffffffffffffffffffffffffffffffffffffffff02191690556001600360008573ffffffffffffffffffffffffffffffffffffffff1673ffffffffffffffffffffffffffffffffffffffff168152602001908152602001600020600082825403925050819055506001600360008473ffffffffffffffffffffffffffffffffffffffff1673ffffffffffffffffffffffffffffffffffffffff16815260200190815260200160002060008282540192505081905550816002600083815260200190815260200160002060006101000a81548173ffffffffffffffffffffffffffffffffffffffff021916908373ffffffffffffffffffffffffffffffffffffffff160217905550808273ffffffffffffffffffffffffffffffffffffffff168473ffffffffffffffffffffffffffffffffffffffff167fddf252ad1be2c89b69c2b068fc378daa952ba7f163c4a11628f55a4df523b3ef60405160405180910390a46116478383836001611cdb565b505050565b60006002600083815260200190815260200160002060009054906101000a900473ffffffffffffffffffffffffffffffffffffffff169050919050565b6000600a60009054906101000a900473ffffffffffffffffffffffffffffffffffffffff16905081600a60006101000a81548173ffffffffffffffffffffffffffffffffffffffff021916908373ffffffffffffffffffffffffffffffffffffffff1602179055508173ffffffffffffffffffffffffffffffffffffffff168173ffffffffffffffffffffffffffffffffffffffff167f8be0079c531659141344cd1fd0a4f28419497f9722a3daafe3b4186f6b6457e060405160405180910390a35050565b8173ffffffffffffffffffffffffffffffffffffffff168373ffffffffffffffffffffffffffffffffffffffff16036117bd576040517f08c379a00000000000000000000000000000000000000000000000000000000081526004016117b490613502565b60405180910390fd5b80600560008573ffffffffffffffffffffffffffffffffffffffff1673ffffffffffffffffffffffffffffffffffffffff16815260200190815260200160002060008473ffffffffffffffffffffffffffffffffffffffff1673ffffffffffffffffffffffffffffffffffffffff16815260200190815260200160002060006101000a81548160ff0219169083151502179055508173ffffffffffffffffffffffffffffffffffffffff168373ffffffffffffffffffffffffffffffffffffffff167f17307eab39ab6107e8899845ad3d59bd9653f200f220920489ca2b5937696c31836040516118ae91906125bb565b60405180910390a3505050565b6118c6848484611353565b6118d284848484611ce1565b611911576040517f08c379a000000000000000000000000000000000000000000000000000000000815260040161190890613594565b60405180910390fd5b50505050565b60008073ffffffffffffffffffffffffffffffffffffffff166119398361164c565b73ffffffffffffffffffffffffffffffffffffffff1614159050919050565b6060600b805461196790612b1d565b80601f016020809104026020016040519081016040528092919081815260200182805461199390612b1d565b80156119e05780601f106119b5576101008083540402835291602001916119e0565b820191906000526020600020905b8154815290600101906020018083116119c357829003601f168201915b5050505050905090565b6060600060016119f984611e68565b01905060008167ffffffffffffffff811115611a1857611a17612900565b5b6040519080825280601f01601f191660200182016040528015611a4a5781602001600182028036833780820191505090505b509050600082602001820190505b600115611aad578080600190039150507f3031323334353637383961626364656600000000000000000000000000000000600a86061a8153600a8581611aa157611aa06135b4565b5b04945060008503611a58575b819350505050919050565b60007f01ffc9a7000000000000000000000000000000000000000000000000000000007bffffffffffffffffffffffffffffffffffffffffffffffffffffffff1916827bffffffffffffffffffffffffffffffffffffffffffffffffffffffff1916149050919050565b611b2c8383611fbb565b611b396000848484611ce1565b611b78576040517f08c379a0000000000000000000000000000000000000000000000000000000008152600401611b6f90613594565b60405180910390fd5b505050565b611b89848484846121d8565b6001811115611bcd576040517f08c379a0000000000000000000000000000000000000000000000000000000008152600401611bc490613655565b60405180910390fd5b6000829050600073ffffffffffffffffffffffffffffffffffffffff168573ffffffffffffffffffffffffffffffffffffffff1603611c1457611c0f816121de565b611c53565b8373ffffffffffffffffffffffffffffffffffffffff168573ffffffffffffffffffffffffffffffffffffffff1614611c5257611c518582612227565b5b5b600073ffffffffffffffffffffffffffffffffffffffff168473ffffffffffffffffffffffffffffffffffffffff1603611c9557611c9081612394565b611cd4565b8473ffffffffffffffffffffffffffffffffffffffff168473ffffffffffffffffffffffffffffffffffffffff1614611cd357611cd28482612465565b5b5b5050505050565b50505050565b6000611d028473ffffffffffffffffffffffffffffffffffffffff166124e4565b15611e5b578373ffffffffffffffffffffffffffffffffffffffff1663150b7a02611d2b611161565b8786866040518563ffffffff1660e01b8152600401611d4d94939291906136ca565b6020604051808303816000875af1925050508015611d8957506040513d601f19601f82011682018060405250810190611d86919061372b565b60015b611e0b573d8060008114611db9576040519150601f19603f3d011682016040523d82523d6000602084013e611dbe565b606091505b506000815103611e03576040517f08c379a0000000000000000000000000000000000000000000000000000000008152600401611dfa90613594565b60405180910390fd5b805181602001fd5b63150b7a0260e01b7bffffffffffffffffffffffffffffffffffffffffffffffffffffffff1916817bffffffffffffffffffffffffffffffffffffffffffffffffffffffff191614915050611e60565b600190505b949350505050565b600080600090507a184f03e93ff9f4daa797ed6e38ed64bf6a1f0100000000000000008310611ec6577a184f03e93ff9f4daa797ed6e38ed64bf6a1f0100000000000000008381611ebc57611ebb6135b4565b5b0492506040810190505b6d04ee2d6d415b85acef81000000008310611f03576d04ee2d6d415b85acef81000000008381611ef957611ef86135b4565b5b0492506020810190505b662386f26fc100008310611f3257662386f26fc100008381611f2857611f276135b4565b5b0492506010810190505b6305f5e1008310611f5b576305f5e1008381611f5157611f506135b4565b5b0492506008810190505b6127108310611f80576127108381611f7657611f756135b4565b5b0492506004810190505b60648310611fa35760648381611f9957611f986135b4565b5b0492506002810190505b600a8310611fb2576001810190505b80915050919050565b600073ffffffffffffffffffffffffffffffffffffffff168273ffffffffffffffffffffffffffffffffffffffff160361202a576040517f08c379a0000000000000000000000000000000000000000000000000000000008152600401612021906137a4565b60405180910390fd5b61203381611917565b15612073576040517f08c379a000000000000000000000000000000000000000000000000000000000815260040161206a90613810565b60405180910390fd5b612081600083836001611b7d565b61208a81611917565b156120ca576040517f08c379a00000000000000000000000000000000000000000000000000000000081526004016120c190613810565b60405180910390fd5b6001600360008473ffffffffffffffffffffffffffffffffffffffff1673ffffffffffffffffffffffffffffffffffffffff16815260200190815260200160002060008282540192505081905550816002600083815260200190815260200160002060006101000a81548173ffffffffffffffffffffffffffffffffffffffff021916908373ffffffffffffffffffffffffffffffffffffffff160217905550808273ffffffffffffffffffffffffffffffffffffffff16600073ffffffffffffffffffffffffffffffffffffffff167fddf252ad1be2c89b69c2b068fc378daa952ba7f163c4a11628f55a4df523b3ef60405160405180910390a46121d4600083836001611cdb565b5050565b50505050565b6008805490506009600083815260200190815260200160002081905550600881908060018154018082558091505060019003906000526020600020016000909190919091505550565b6000600161223484610c77565b61223e919061385f565b9050600060076000848152602001908152602001600020549050818114612323576000600660008673ffffffffffffffffffffffffffffffffffffffff1673ffffffffffffffffffffffffffffffffffffffff168152602001908152602001600020600084815260200190815260200160002054905080600660008773ffffffffffffffffffffffffffffffffffffffff1673ffffffffffffffffffffffffffffffffffffffff168152602001908152602001600020600084815260200190815260200160002081905550816007600083815260200190815260200160002081905550505b6007600084815260200190815260200160002060009055600660008573ffffffffffffffffffffffffffffffffffffffff1673ffffffffffffffffffffffffffffffffffffffff16815260200190815260200160002060008381526020019081526020016000206000905550505050565b600060016008805490506123a8919061385f565b90506000600960008481526020019081526020016000205490506000600883815481106123d8576123d7613044565b5b9060005260206000200154905080600883815481106123fa576123f9613044565b5b90600052602060002001819055508160096000838152602001908152602001600020819055506009600085815260200190815260200160002060009055600880548061244957612448613893565b5b6001900381819060005260206000200160009055905550505050565b600061247083610c77565b905081600660008573ffffffffffffffffffffffffffffffffffffffff1673ffffffffffffffffffffffffffffffffffffffff168152602001908152602001600020600083815260200190815260200160002081905550806007600084815260200190815260200160002081905550505050565b6000808273ffffffffffffffffffffffffffffffffffffffff163b119050919050565b6000604051905090565b600080fd5b600080fd5b60007fffffffff0000000000000000000000000000000000000000000000000000000082169050919050565b6125508161251b565b811461255b57600080fd5b50565b60008135905061256d81612547565b92915050565b60006020828403121561258957612588612511565b5b60006125978482850161255e565b91505092915050565b60008115159050919050565b6125b5816125a0565b82525050565b60006020820190506125d060008301846125ac565b92915050565b600081519050919050565b600082825260208201905092915050565b60005b838110156126105780820151818401526020810190506125f5565b60008484015250505050565b6000601f19601f8301169050919050565b6000612638826125d6565b61264281856125e1565b93506126528185602086016125f2565b61265b8161261c565b840191505092915050565b60006020820190508181036000830152612680818461262d565b905092915050565b6000819050919050565b61269b81612688565b81146126a657600080fd5b50565b6000813590506126b881612692565b92915050565b6000602082840312156126d4576126d3612511565b5b60006126e2848285016126a9565b91505092915050565b600073ffffffffffffffffffffffffffffffffffffffff82169050919050565b6000612716826126eb565b9050919050565b6127268161270b565b82525050565b6000602082019050612741600083018461271d565b92915050565b6127508161270b565b811461275b57600080fd5b50565b60008135905061276d81612747565b92915050565b6000806040838503121561278a57612789612511565b5b60006127988582860161275e565b92505060206127a9858286016126a9565b9150509250929050565b6127bc816125a0565b81146127c757600080fd5b50565b6000813590506127d9816127b3565b92915050565b6000602082840312156127f5576127f4612511565b5b6000612803848285016127ca565b91505092915050565b61281581612688565b82525050565b6000602082019050612830600083018461280c565b92915050565b60008060006060848603121561284f5761284e612511565b5b600061285d8682870161275e565b935050602061286e8682870161275e565b925050604061287f868287016126a9565b9150509250925092565b60006020828403121561289f5761289e612511565b5b60006128ad8482850161275e565b91505092915050565b600080604083850312156128cd576128cc612511565b5b60006128db8582860161275e565b92505060206128ec858286016127ca565b9150509250929050565b600080fd5b600080fd5b7f4e487b7100000000000000000000000000000000000000000000000000000000600052604160045260246000fd5b6129388261261c565b810181811067ffffffffffffffff8211171561295757612956612900565b5b80604052505050565b600061296a612507565b9050612976828261292f565b919050565b600067ffffffffffffffff82111561299657612995612900565b5b61299f8261261c565b9050602081019050919050565b82818337600083830152505050565b60006129ce6129c98461297b565b612960565b9050828152602081018484840111156129ea576129e96128fb565b5b6129f58482856129ac565b509392505050565b600082601f830112612a1257612a116128f6565b5b8135612a228482602086016129bb565b91505092915050565b60008060008060808587031215612a4557612a44612511565b5b6000612a538782880161275e565b9450506020612a648782880161275e565b9350506040612a75878288016126a9565b925050606085013567ffffffffffffffff811115612a9657612a95612516565b5b612aa2878288016129fd565b91505092959194509250565b60008060408385031215612ac557612ac4612511565b5b6000612ad38582860161275e565b9250506020612ae48582860161275e565b9150509250929050565b7f4e487b7100000000000000000000000000000000000000000000000000000000600052602260045260246000fd5b60006002820490506001821680612b3557607f821691505b602082108103612b4857612b47612aee565b5b50919050565b7f4552433732313a20617070726f76616c20746f2063757272656e74206f776e6560008201527f7200000000000000000000000000000000000000000000000000000000000000602082015250565b6000612baa6021836125e1565b9150612bb582612b4e565b604082019050919050565b60006020820190508181036000830152612bd981612b9d565b9050919050565b7f4552433732313a20617070726f76652063616c6c6572206973206e6f7420746f60008201527f6b656e206f776e6572206f7220617070726f76656420666f7220616c6c000000602082015250565b6000612c3c603d836125e1565b9150612c4782612be0565b604082019050919050565b60006020820190508181036000830152612c6b81612c2f565b9050919050565b600081905092915050565b50565b6000612c8d600083612c72565b9150612c9882612c7d565b600082019050919050565b6000612cae82612c80565b9150819050919050565b7f776974684472617728293a204661696c656420746f2073656e64204568657200600082015250565b6000612cee601f836125e1565b9150612cf982612cb8565b602082019050919050565b60006020820190508181036000830152612d1d81612ce1565b9050919050565b7f43757272656e746c7920756e617661696c61626c653a20636f6e74726163742060008201527f7061757365640000000000000000000000000000000000000000000000000000602082015250565b6000612d806026836125e1565b9150612d8b82612d24565b604082019050919050565b60006020820190508181036000830152612daf81612d73565b9050919050565b7f457863656564206d6178696d756d20737570706c790000000000000000000000600082015250565b6000612dec6015836125e1565b9150612df782612db6565b602082019050919050565b60006020820190508181036000830152612e1b81612ddf565b9050919050565b7f496e737566666963656e742065746820746f206d696e74000000000000000000600082015250565b6000612e586017836125e1565b9150612e6382612e22565b602082019050919050565b60006020820190508181036000830152612e8781612e4b565b9050919050565b7f4552433732313a2063616c6c6572206973206e6f7420746f6b656e206f776e6560008201527f72206f7220617070726f76656400000000000000000000000000000000000000602082015250565b6000612eea602d836125e1565b9150612ef582612e8e565b604082019050919050565b60006020820190508181036000830152612f1981612edd565b9050919050565b7f455243373231456e756d657261626c653a206f776e657220696e646578206f7560008201527f74206f6620626f756e6473000000000000000000000000000000000000000000602082015250565b6000612f7c602b836125e1565b9150612f8782612f20565b604082019050919050565b60006020820190508181036000830152612fab81612f6f565b9050919050565b7f455243373231456e756d657261626c653a20676c6f62616c20696e646578206f60008201527f7574206f6620626f756e64730000000000000000000000000000000000000000602082015250565b600061300e602c836125e1565b915061301982612fb2565b604082019050919050565b6000602082019050818103600083015261303d81613001565b9050919050565b7f4e487b7100000000000000000000000000000000000000000000000000000000600052603260045260246000fd5b7f4552433732313a20696e76616c696420746f6b656e2049440000000000000000600082015250565b60006130a96018836125e1565b91506130b482613073565b602082019050919050565b600060208201905081810360008301526130d88161309c565b9050919050565b7f4552433732313a2061646472657373207a65726f206973206e6f74206120766160008201527f6c6964206f776e65720000000000000000000000000000000000000000000000602082015250565b600061313b6029836125e1565b9150613146826130df565b604082019050919050565b6000602082019050818103600083015261316a8161312e565b9050919050565b7f546f6b656e20496420446f204e6f742065786973740000000000000000000000600082015250565b60006131a76015836125e1565b91506131b282613171565b602082019050919050565b600060208201905081810360008301526131d68161319a565b9050919050565b600081905092915050565b60006131f3826125d6565b6131fd81856131dd565b935061320d8185602086016125f2565b80840191505092915050565b7f2e6a736f6e000000000000000000000000000000000000000000000000000000600082015250565b600061324f6005836131dd565b915061325a82613219565b600582019050919050565b600061327182856131e8565b915061327d82846131e8565b915061328882613242565b91508190509392505050565b7f4f776e61626c653a206e6577206f776e657220697320746865207a65726f206160008201527f6464726573730000000000000000000000000000000000000000000000000000602082015250565b60006132f06026836125e1565b91506132fb82613294565b604082019050919050565b6000602082019050818103600083015261331f816132e3565b9050919050565b7f4f776e61626c653a2063616c6c6572206973206e6f7420746865206f776e6572600082015250565b600061335c6020836125e1565b915061336782613326565b602082019050919050565b6000602082019050818103600083015261338b8161334f565b9050919050565b7f4552433732313a207472616e736665722066726f6d20696e636f72726563742060008201527f6f776e6572000000000000000000000000000000000000000000000000000000602082015250565b60006133ee6025836125e1565b91506133f982613392565b604082019050919050565b6000602082019050818103600083015261341d816133e1565b9050919050565b7f4552433732313a207472616e7366657220746f20746865207a65726f2061646460008201527f7265737300000000000000000000000000000000000000000000000000000000602082015250565b60006134806024836125e1565b915061348b82613424565b604082019050919050565b600060208201905081810360008301526134af81613473565b9050919050565b7f4552433732313a20617070726f766520746f2063616c6c657200000000000000600082015250565b60006134ec6019836125e1565b91506134f7826134b6565b602082019050919050565b6000602082019050818103600083015261351b816134df565b9050919050565b7f4552433732313a207472616e7366657220746f206e6f6e20455243373231526560008201527f63656976657220696d706c656d656e7465720000000000000000000000000000602082015250565b600061357e6032836125e1565b915061358982613522565b604082019050919050565b600060208201905081810360008301526135ad81613571565b9050919050565b7f4e487b7100000000000000000000000000000000000000000000000000000000600052601260045260246000fd5b7f455243373231456e756d657261626c653a20636f6e736563757469766520747260008201527f616e7366657273206e6f7420737570706f727465640000000000000000000000602082015250565b600061363f6035836125e1565b915061364a826135e3565b604082019050919050565b6000602082019050818103600083015261366e81613632565b9050919050565b600081519050919050565b600082825260208201905092915050565b600061369c82613675565b6136a68185613680565b93506136b68185602086016125f2565b6136bf8161261c565b840191505092915050565b60006080820190506136df600083018761271d565b6136ec602083018661271d565b6136f9604083018561280c565b818103606083015261370b8184613691565b905095945050505050565b60008151905061372581612547565b92915050565b60006020828403121561374157613740612511565b5b600061374f84828501613716565b91505092915050565b7f4552433732313a206d696e7420746f20746865207a65726f2061646472657373600082015250565b600061378e6020836125e1565b915061379982613758565b602082019050919050565b600060208201905081810360008301526137bd81613781565b9050919050565b7f4552433732313a20746f6b656e20616c7265616479206d696e74656400000000600082015250565b60006137fa601c836125e1565b9150613805826137c4565b602082019050919050565b60006020820190508181036000830152613829816137ed565b9050919050565b7f4e487b7100000000000000000000000000000000000000000000000000000000600052601160045260246000fd5b600061386a82612688565b915061387583612688565b925082820390508181111561388d5761388c613830565b5b92915050565b7f4e487b7100000000000000000000000000000000000000000000000000000000600052603160045260246000fdfea264697066735822122003396b52e3f8dc5e0d85e7b2d13a2e7422a70a8823d011b596752b82cfd60a0c64736f6c63430008190033",
  "devdoc": {
    "events": {
      "Approval(address,address,uint256)": {
        "details": "Emitted when `owner` enables `approved` to manage the `tokenId` token."
      },
      "ApprovalForAll(address,address,bool)": {
        "details": "Emitted when `owner` enables or disables (`approved`) `operator` to manage all of its assets."
      },
      "Transfer(address,address,uint256)": {
        "details": "Emitted when `tokenId` token is transferred from `from` to `to`."
      }
    },
    "kind": "dev",
    "methods": {
      "approve(address,uint256)": {
        "details": "See {IERC721-approve}."
      },
      "balanceOf(address)": {
        "details": "See {IERC721-balanceOf}."
      },
      "getApproved(uint256)": {
        "details": "See {IERC721-getApproved}."
      },
      "isApprovedForAll(address,address)": {
        "details": "See {IERC721-isApprovedForAll}."
      },
      "name()": {
        "details": "See {IERC721Metadata-name}."
      },
      "owner()": {
        "details": "Returns the address of the current owner."
      },
      "ownerOf(uint256)": {
        "details": "See {IERC721-ownerOf}."
      },
      "renounceOwnership()": {
        "details": "Leaves the contract without owner. It will not be possible to call `onlyOwner` functions. Can only be called by the current owner. NOTE: Renouncing ownership will leave the contract without an owner, thereby disabling any functionality that is only available to the owner."
      },
      "safeTransferFrom(address,address,uint256)": {
        "details": "See {IERC721-safeTransferFrom}."
      },
      "safeTransferFrom(address,address,uint256,bytes)": {
        "details": "See {IERC721-safeTransferFrom}."
      },
      "setApprovalForAll(address,bool)": {
        "details": "See {IERC721-setApprovalForAll}."
      },
      "supportsInterface(bytes4)": {
        "details": "See {IERC165-supportsInterface}."
      },
      "symbol()": {
        "details": "See {IERC721Metadata-symbol}."
      },
      "tokenByIndex(uint256)": {
        "details": "See {IERC721Enumerable-tokenByIndex}."
      },
      "tokenOfOwnerByIndex(address,uint256)": {
        "details": "See {IERC721Enumerable-tokenOfOwnerByIndex}."
      },
      "tokenURI(uint256)": {
        "details": "See {IERC721Metadata-tokenURI}."
      },
      "totalSupply()": {
        "details": "See {IERC721Enumerable-totalSupply}."
      },
      "transferFrom(address,address,uint256)": {
        "details": "See {IERC721-transferFrom}."
      },
      "transferOwnership(address)": {
        "details": "Transfers ownership of the contract to a new account (`newOwner`). Can only be called by the current owner."
      }
    },
    "version": 1
  },
  "userdoc": {
    "kind": "user",
    "methods": {},
    "version": 1
  },
  "storageLayout": {
    "storage": [
      {
        "astId": 138,
        "contract": "contracts/CryptoDevsNFT.sol:CryptoDevsNFT",
        "label": "_name",
        "offset": 0,
        "slot": "0",
        "type": "t_string_storage"
      },
      {
        "astId": 140,
        "contract": "contracts/CryptoDevsNFT.sol:CryptoDevsNFT",
        "label": "_symbol",
        "offset": 0,
        "slot": "1",
        "type": "t_string_storage"
      },
      {
        "astId": 144,
        "contract": "contracts/CryptoDevsNFT.sol:CryptoDevsNFT",
        "label": "_owners",
        "offset": 0,
        "slot": "2",
        "type": "t_mapping(t_uint256,t_address)"
      },
      {
        "astId": 148,
        "contract": "contracts/CryptoDevsNFT.sol:CryptoDevsNFT",
        "label": "_balances",
        "offset": 0,
        "slot": "3",
        "type": "t_mapping(t_address,t_uint256)"
      },
      {
        "astId": 152,
        "contract": "contracts/CryptoDevsNFT.sol:CryptoDevsNFT",
        "label": "_tokenApprovals",
        "offset": 0,
        "slot": "4",
        "type": "t_mapping(t_uint256,t_address)"
      },
      {
        "astId": 158,
        "contract": "contracts/CryptoDevsNFT.sol:CryptoDevsNFT",
        "label": "_operatorApprovals",
        "offset": 0,
        "slot": "5",
        "type": "t_mapping(t_address,t_mapping(t_address,t_bool))"
      },
      {
        "astId": 1188,
        "contract": "contracts/CryptoDevsNFT.sol:CryptoDevsNFT",
        "label": "_ownedTokens",
        "offset": 0,
        "slot": "6",
        "type": "t_mapping(t_address,t_mapping(t_uint256,t_uint256))"
      },
      {
        "astId": 1192,
        "contract": "contracts/CryptoDevsNFT.sol:CryptoDevsNFT",
        "label": "_ownedTokensIndex",
        "offset": 0,
        "slot": "7",
        "type": "t_mapping(t_uint256,t_uint256)"
      },
      {
        "astId": 1195,
        "contract": "contracts/CryptoDevsNFT.sol:CryptoDevsNFT",
        "label": "_allTokens",
        "offset": 0,
        "slot": "8",
        "type": "t_array(t_uint256)dyn_storage"
      },
      {
        "astId": 1199,
        "contract": "contracts/CryptoDevsNFT.sol:CryptoDevsNFT",
        "label": "_allTokensIndex",
        "offset": 0,
        "slot": "9",
        "type": "t_mapping(t_uint256,t_uint256)"
      },
      {
        "astId": 7,
        "contract": "contracts/CryptoDevsNFT.sol:CryptoDevsNFT",
        "label": "_owner",
        "offset": 0,
        "slot": "10",
        "type": "t_address"
      },
      {
        "astId": 3652,
        "contract": "contracts/CryptoDevsNFT.sol:CryptoDevsNFT",
        "label": "_tokenBaseURI",
        "offset": 0,
        "slot": "11",
        "type": "t_string_storage"
      },
      {
        "astId": 3655,
        "contract": "contracts/CryptoDevsNFT.sol:CryptoDevsNFT",
        "label": "_price",
        "offset": 0,
        "slot": "12",
        "type": "t_uint256"
      },
      {
        "astId": 3657,
        "contract": "contracts/CryptoDevsNFT.sol:CryptoDevsNFT",
        "label": "_paused",
        "offset": 0,
        "slot": "13",
        "type": "t_bool"
      },
      {
        "astId": 3660,
        "contract": "contracts/CryptoDevsNFT.sol:CryptoDevsNFT",
        "label": "maxTokenIds",
        "offset": 0,
        "slot": "14",
        "type": "t_uint256"
      }
    ],
    "types": {
      "t_address": {
        "encoding": "inplace",
        "label": "address",
        "numberOfBytes": "20"
      },
      "t_array(t_uint256)dyn_storage": {
        "base": "t_uint256",
        "encoding": "dynamic_array",
        "label": "uint256[]",
        "numberOfBytes": "32"
      },
      "t_bool": {
        "encoding": "inplace",
        "label": "bool",
        "numberOfBytes": "1"
      },
      "t_mapping(t_address,t_bool)": {
        "encoding": "mapping",
        "key": "t_address",
        "label": "mapping(address => bool)",
        "numberOfBytes": "32",
        "value": "t_bool"
      },
      "t_mapping(t_address,t_mapping(t_address,t_bool))": {
        "encoding": "mapping",
        "key": "t_address",
        "label": "mapping(address => mapping(address => bool))",
        "numberOfBytes": "32",
        "value": "t_mapping(t_address,t_bool)"
      },
      "t_mapping(t_address,t_mapping(t_uint256,t_uint256))": {
        "encoding": "mapping",
        "key": "t_address",
        "label": "mapping(address => mapping(uint256 => uint256))",
        "numberOfBytes": "32",
        "value": "t_mapping(t_uint256,t_uint256)"
      },
      "t_mapping(t_address,t_uint256)": {
        "encoding": "mapping",
        "key": "t_address",
        "label": "mapping(address => uint256)",
        "numberOfBytes": "32",
        "value": "t_uint256"
      },
      "t_mapping(t_uint256,t_address)": {
        "encoding": "mapping",
        "key": "t_uint256",
        "label": "mapping(uint256 => address)",
        "numberOfBytes": "32",
        "value": "t_address"
      },
      "t_mapping(t_uint256,t_uint256)": {
        "encoding": "mapping",
        "key": "t_uint256",
        "label": "mapping(uint256 => uint256)",
        "numberOfBytes": "32",
        "value": "t_uint256"
      },
      "t_string_storage": {
        "encoding": "bytes",
        "label": "string",
        "numberOfBytes": "32"
      },
      "t_uint256": {
        "encoding": "inplace",
        "label": "uint256",
        "numberOfBytes": "32"
      }
    }
  }
}