{
  "address": "0x2279B7A0a67DB372996a5FaB50D91eAA73d2eBe6",
  "abi": [
    {
      "inputs": [
        {
          "internalType": "address",
          "name": "_nftMarketplace",
          "type": "address"
        },
        {
          "internalType": "address",
          "name": "_cryptoDevsNFT",
          "type": "address"
        }
      ],
      "stateMutability": "nonpayable",
      "type": "constructor"
    },
    {
      "anonymous": false,
      "inputs": [
        {
          "indexed": false,
          "internalType": "string",
          "name": "msg",
          "type": "string"
        },
        {
          "indexed": false,
          "internalType": "uint256",
          "name": "amount",
          "type": "uint256"
        },
        {
          "indexed": false,
          "internalType": "address",
          "name": "sender",
          "type": "address"
        }
      ],
      "name": "Log",
      "type": "event"
    },
    {
      "anonymous": false,
      "inputs": [
        {
          "indexed": true,
          "internalType": "address",
          "name": "previousOwner",
          "type": "address"
        },
        {
          "indexed": true,
          "internalType": "address",
          "name": "newOwner",
          "type": "address"
        }
      ],
      "name": "OwnershipTransferred",
      "type": "event"
    },
    {
      "anonymous": false,
      "inputs": [
        {
          "indexed": false,
          "internalType": "string",
          "name": "msg",
          "type": "string"
        },
        {
          "indexed": false,
          "internalType": "address",
          "name": "_address",
          "type": "address"
        },
        {
          "indexed": false,
          "internalType": "uint256",
          "name": "tokenId",
          "type": "uint256"
        },
        {
          "indexed": false,
          "internalType": "bool",
          "name": "voted",
          "type": "bool"
        }
      ],
      "name": "voteProposal",
      "type": "event"
    },
    {
      "stateMutability": "payable",
      "type": "fallback"
    },
    {
      "inputs": [
        {
          "internalType": "uint256",
          "name": "_nftTokenId",
          "type": "uint256"
        }
      ],
      "name": "createProposal",
      "outputs": [
        {
          "internalType": "uint256",
          "name": "",
          "type": "uint256"
        }
      ],
      "stateMutability": "nonpayable",
      "type": "function"
    },
    {
      "inputs": [
        {
          "internalType": "uint256",
          "name": "proposalId",
          "type": "uint256"
        }
      ],
      "name": "excuteProposal",
      "outputs": [],
      "stateMutability": "nonpayable",
      "type": "function"
    },
    {
      "inputs": [],
      "name": "owner",
      "outputs": [
        {
          "internalType": "address",
          "name": "",
          "type": "address"
        }
      ],
      "stateMutability": "view",
      "type": "function"
    },
    {
      "inputs": [
        {
          "internalType": "uint256",
          "name": "",
          "type": "uint256"
        }
      ],
      "name": "proposals",
      "outputs": [
        {
          "internalType": "uint256",
          "name": "nftTokenId",
          "type": "uint256"
        },
        {
          "internalType": "uint256",
          "name": "deadline",
          "type": "uint256"
        },
        {
          "internalType": "uint256",
          "name": "approvals",
          "type": "uint256"
        },
        {
          "internalType": "uint256",
          "name": "rejections",
          "type": "uint256"
        },
        {
          "internalType": "bool",
          "name": "excuted",
          "type": "bool"
        }
      ],
      "stateMutability": "view",
      "type": "function"
    },
    {
      "inputs": [],
      "name": "renounceOwnership",
      "outputs": [],
      "stateMutability": "nonpayable",
      "type": "function"
    },
    {
      "inputs": [],
      "name": "size",
      "outputs": [
        {
          "internalType": "uint256",
          "name": "",
          "type": "uint256"
        }
      ],
      "stateMutability": "view",
      "type": "function"
    },
    {
      "inputs": [
        {
          "internalType": "address",
          "name": "newOwner",
          "type": "address"
        }
      ],
      "name": "transferOwnership",
      "outputs": [],
      "stateMutability": "nonpayable",
      "type": "function"
    },
    {
      "inputs": [
        {
          "internalType": "uint256",
          "name": "proposalId",
          "type": "uint256"
        },
        {
          "internalType": "enum CryptoDevsNFTDao.Vote",
          "name": "vote",
          "type": "uint8"
        }
      ],
      "name": "voteOnProposal",
      "outputs": [],
      "stateMutability": "nonpayable",
      "type": "function"
    },
    {
      "inputs": [],
      "name": "withdrawEther",
      "outputs": [],
      "stateMutability": "nonpayable",
      "type": "function"
    },
    {
      "stateMutability": "payable",
      "type": "receive"
    }
  ],
  "transactionHash": "0xa74ae9fcd6f9fe412ff280978e44f7057dcc75f2085a06b27307a15e5d34b0b9",
  "args": [
    "0x5FbDB2315678afecb367f032d93F642f64180aa3",
    "0xe7f1725E7734CE288F8367e1Bb143E90bb3F0512"
  ],
  "numDeployments": 2,
  "solcInputHash": "fd72d1fd04fcdbc9c4242702955fd7f1",
  "bytecode": "0x608060405234801561001057600080fd5b50604051611ce4380380611ce483398181016040528101906100329190610206565b61004e6100436100d760201b60201c565b6100df60201b60201c565b80600360006101000a81548173ffffffffffffffffffffffffffffffffffffffff021916908373ffffffffffffffffffffffffffffffffffffffff16021790555081600460006101000a81548173ffffffffffffffffffffffffffffffffffffffff021916908373ffffffffffffffffffffffffffffffffffffffff1602179055505050610246565b600033905090565b60008060009054906101000a900473ffffffffffffffffffffffffffffffffffffffff169050816000806101000a81548173ffffffffffffffffffffffffffffffffffffffff021916908373ffffffffffffffffffffffffffffffffffffffff1602179055508173ffffffffffffffffffffffffffffffffffffffff168173ffffffffffffffffffffffffffffffffffffffff167f8be0079c531659141344cd1fd0a4f28419497f9722a3daafe3b4186f6b6457e060405160405180910390a35050565b600080fd5b600073ffffffffffffffffffffffffffffffffffffffff82169050919050565b60006101d3826101a8565b9050919050565b6101e3816101c8565b81146101ee57600080fd5b50565b600081519050610200816101da565b92915050565b6000806040838503121561021d5761021c6101a3565b5b600061022b858286016101f1565b925050602061023c858286016101f1565b9150509250929050565b611a8f806102556000396000f3fe60806040526004361061008a5760003560e01c80638da5cb5b116100595780638da5cb5b146101b1578063949d225d146101dc578063c63f555214610207578063efafb22e14610230578063f2fde38b14610259576100ca565b8063013cf08b146101055780635a43dc0014610146578063715018a6146101835780637362377b1461019a576100ca565b366100ca577faf85a14b6e06dc1f57f4f75fb7bf96f82980e065fe76c00976d1bfe68032666234336040516100c0929190611037565b60405180910390a1005b7faf85a14b6e06dc1f57f4f75fb7bf96f82980e065fe76c00976d1bfe68032666234336040516100fb9291906110bf565b60405180910390a1005b34801561011157600080fd5b5061012c6004803603810190610127919061112c565b610282565b60405161013d959493929190611174565b60405180910390f35b34801561015257600080fd5b5061016d6004803603810190610168919061112c565b6102c5565b60405161017a91906111c7565b60405180910390f35b34801561018f57600080fd5b506101986104e6565b005b3480156101a657600080fd5b506101af6104fa565b005b3480156101bd57600080fd5b506101c6610607565b6040516101d391906111e2565b60405180910390f35b3480156101e857600080fd5b506101f1610630565b6040516101fe91906111c7565b60405180910390f35b34801561021357600080fd5b5061022e6004803603810190610229919061112c565b610636565b005b34801561023c57600080fd5b5061025760048036038101906102529190611222565b61098d565b005b34801561026557600080fd5b50610280600480360381019061027b919061128e565b610db3565b005b60016020528060005260406000206000915090508060000154908060010154908060020154908060030154908060040160009054906101000a900460ff16905085565b600080600360009054906101000a900473ffffffffffffffffffffffffffffffffffffffff1673ffffffffffffffffffffffffffffffffffffffff166370a08231336040518263ffffffff1660e01b815260040161032391906111e2565b602060405180830381865afa158015610340573d6000803e3d6000fd5b505050506040513d601f19601f8201168201806040525081019061036491906112d0565b116103a4576040517f08c379a000000000000000000000000000000000000000000000000000000000815260040161039b90611349565b60405180910390fd5b600460009054906101000a900473ffffffffffffffffffffffffffffffffffffffff1673ffffffffffffffffffffffffffffffffffffffff166396e494e8836040518263ffffffff1660e01b81526004016103ff91906111c7565b602060405180830381865afa15801561041c573d6000803e3d6000fd5b505050506040513d601f19601f820116820180604052508101906104409190611395565b61047f576040517f08c379a00000000000000000000000000000000000000000000000000000000081526004016104769061140e565b60405180910390fd5b6000600160006002548152602001908152602001600020905082816000018190555061012c426104af919061145d565b8160010181905550600260008154809291906104ca90611491565b919050555060016002546104de91906114d9565b915050919050565b6104ee610e36565b6104f86000610eb4565b565b610502610e36565b60004790506000610511610607565b905060008211610556576040517f08c379a000000000000000000000000000000000000000000000000000000000815260040161054d9061157f565b60405180910390fd5b60008173ffffffffffffffffffffffffffffffffffffffff168360405161057c906115d0565b60006040518083038185875af1925050503d80600081146105b9576040519150601f19603f3d011682016040523d82523d6000602084013e6105be565b606091505b5050905080610602576040517f08c379a00000000000000000000000000000000000000000000000000000000081526004016105f990611631565b60405180910390fd5b505050565b60008060009054906101000a900473ffffffffffffffffffffffffffffffffffffffff16905090565b60025481565b6000600360009054906101000a900473ffffffffffffffffffffffffffffffffffffffff1673ffffffffffffffffffffffffffffffffffffffff166370a08231336040518263ffffffff1660e01b815260040161069391906111e2565b602060405180830381865afa1580156106b0573d6000803e3d6000fd5b505050506040513d601f19601f820116820180604052508101906106d491906112d0565b11610714576040517f08c379a000000000000000000000000000000000000000000000000000000000815260040161070b90611349565b60405180910390fd5b80426001600083815260200190815260200160002060010154111561076e576040517f08c379a00000000000000000000000000000000000000000000000000000000081526004016107659061169d565b60405180910390fd5b600015156001600083815260200190815260200160002060040160009054906101000a900460ff161515146107d8576040517f08c379a00000000000000000000000000000000000000000000000000000000081526004016107cf90611709565b60405180910390fd5b600060016000848152602001908152602001600020905080600301548160020154111561096b576000600460009054906101000a900473ffffffffffffffffffffffffffffffffffffffff1673ffffffffffffffffffffffffffffffffffffffff166398d5fdca6040518163ffffffff1660e01b8152600401602060405180830381865afa15801561086e573d6000803e3d6000fd5b505050506040513d601f19601f8201168201806040525081019061089291906112d0565b9050804710156108d7576040517f08c379a00000000000000000000000000000000000000000000000000000000081526004016108ce90611775565b60405180910390fd5b600460009054906101000a900473ffffffffffffffffffffffffffffffffffffffff1673ffffffffffffffffffffffffffffffffffffffff1663efef39a18284600001546040518363ffffffff1660e01b815260040161093791906111c7565b6000604051808303818588803b15801561095057600080fd5b505af1158015610964573d6000803e3d6000fd5b5050505050505b60018160040160006101000a81548160ff021916908315150217905550505050565b6000600360009054906101000a900473ffffffffffffffffffffffffffffffffffffffff1673ffffffffffffffffffffffffffffffffffffffff166370a08231336040518263ffffffff1660e01b81526004016109ea91906111e2565b602060405180830381865afa158015610a07573d6000803e3d6000fd5b505050506040513d601f19601f82011682018060405250810190610a2b91906112d0565b11610a6b576040517f08c379a0000000000000000000000000000000000000000000000000000000008152600401610a6290611349565b60405180910390fd5b8142600160008381526020019081526020016000206001015411610ac4576040517f08c379a0000000000000000000000000000000000000000000000000000000008152600401610abb906117e1565b60405180910390fd5b60006001600085815260200190815260200160002090506000600360009054906101000a900473ffffffffffffffffffffffffffffffffffffffff1673ffffffffffffffffffffffffffffffffffffffff166370a08231336040518263ffffffff1660e01b8152600401610b3891906111e2565b602060405180830381865afa158015610b55573d6000803e3d6000fd5b505050506040513d601f19601f82011682018060405250810190610b7991906112d0565b90506000805b82811015610cff576000600360009054906101000a900473ffffffffffffffffffffffffffffffffffffffff1673ffffffffffffffffffffffffffffffffffffffff16632f745c5933846040518363ffffffff1660e01b8152600401610be6929190611801565b602060405180830381865afa158015610c03573d6000803e3d6000fd5b505050506040513d601f19601f82011682018060405250810190610c2791906112d0565b90507f4978672e07910354d844275f617d97c38ae3f210a6e8f9dd8d21ace9c2f12ce0338287600501600085815260200190815260200160002060009054906101000a900460ff16604051610c7e93929190611876565b60405180910390a16000151585600501600083815260200190815260200160002060009054906101000a900460ff16151503610cf1578280610cbf90611491565b935050600185600501600083815260200190815260200160002060006101000a81548160ff0219169083151502179055505b508080600101915050610b7f565b5060008111610d43576040517f08c379a0000000000000000000000000000000000000000000000000000000008152600401610d3a9061190c565b60405180910390fd5b60006001811115610d5757610d5661192c565b5b856001811115610d6a57610d6961192c565b5b03610d8f5780836002016000828254610d83919061145d565b92505081905550610dab565b80836003016000828254610da3919061145d565b925050819055505b505050505050565b610dbb610e36565b600073ffffffffffffffffffffffffffffffffffffffff168173ffffffffffffffffffffffffffffffffffffffff1603610e2a576040517f08c379a0000000000000000000000000000000000000000000000000000000008152600401610e21906119cd565b60405180910390fd5b610e3381610eb4565b50565b610e3e610f78565b73ffffffffffffffffffffffffffffffffffffffff16610e5c610607565b73ffffffffffffffffffffffffffffffffffffffff1614610eb2576040517f08c379a0000000000000000000000000000000000000000000000000000000008152600401610ea990611a39565b60405180910390fd5b565b60008060009054906101000a900473ffffffffffffffffffffffffffffffffffffffff169050816000806101000a81548173ffffffffffffffffffffffffffffffffffffffff021916908373ffffffffffffffffffffffffffffffffffffffff1602179055508173ffffffffffffffffffffffffffffffffffffffff168173ffffffffffffffffffffffffffffffffffffffff167f8be0079c531659141344cd1fd0a4f28419497f9722a3daafe3b4186f6b6457e060405160405180910390a35050565b600033905090565b600082825260208201905092915050565b7f726563656976652063616c6c6564000000000000000000000000000000000000600082015250565b6000610fc7600e83610f80565b9150610fd282610f91565b602082019050919050565b6000819050919050565b610ff081610fdd565b82525050565b600073ffffffffffffffffffffffffffffffffffffffff82169050919050565b600061102182610ff6565b9050919050565b61103181611016565b82525050565b6000606082019050818103600083015261105081610fba565b905061105f6020830185610fe7565b61106c6040830184611028565b9392505050565b7f66616c6c6261636b2063616c6c65640000000000000000000000000000000000600082015250565b60006110a9600f83610f80565b91506110b482611073565b602082019050919050565b600060608201905081810360008301526110d88161109c565b90506110e76020830185610fe7565b6110f46040830184611028565b9392505050565b600080fd5b61110981610fdd565b811461111457600080fd5b50565b60008135905061112681611100565b92915050565b600060208284031215611142576111416110fb565b5b600061115084828501611117565b91505092915050565b60008115159050919050565b61116e81611159565b82525050565b600060a0820190506111896000830188610fe7565b6111966020830187610fe7565b6111a36040830186610fe7565b6111b06060830185610fe7565b6111bd6080830184611165565b9695505050505050565b60006020820190506111dc6000830184610fe7565b92915050565b60006020820190506111f76000830184611028565b92915050565b6002811061120a57600080fd5b50565b60008135905061121c816111fd565b92915050565b60008060408385031215611239576112386110fb565b5b600061124785828601611117565b92505060206112588582860161120d565b9150509250929050565b61126b81611016565b811461127657600080fd5b50565b60008135905061128881611262565b92915050565b6000602082840312156112a4576112a36110fb565b5b60006112b284828501611279565b91505092915050565b6000815190506112ca81611100565b92915050565b6000602082840312156112e6576112e56110fb565b5b60006112f4848285016112bb565b91505092915050565b7f4e6f7420612044616f204d656d62657200000000000000000000000000000000600082015250565b6000611333601083610f80565b915061133e826112fd565b602082019050919050565b6000602082019050818103600083015261136281611326565b9050919050565b61137281611159565b811461137d57600080fd5b50565b60008151905061138f81611369565b92915050565b6000602082840312156113ab576113aa6110fb565b5b60006113b984828501611380565b91505092915050565b7f4e465420546f6b656e204e6f7420417661696c61626c65000000000000000000600082015250565b60006113f8601783610f80565b9150611403826113c2565b602082019050919050565b60006020820190508181036000830152611427816113eb565b9050919050565b7f4e487b7100000000000000000000000000000000000000000000000000000000600052601160045260246000fd5b600061146882610fdd565b915061147383610fdd565b925082820190508082111561148b5761148a61142e565b5b92915050565b600061149c82610fdd565b91507fffffffffffffffffffffffffffffffffffffffffffffffffffffffffffffffff82036114ce576114cd61142e565b5b600182019050919050565b60006114e482610fdd565b91506114ef83610fdd565b92508282039050818111156115075761150661142e565b5b92915050565b7f4e6f7468696e6720746f2077697468647261772c20636f6e747261637420626160008201527f6c616e636520656d707479000000000000000000000000000000000000000000602082015250565b6000611569602b83610f80565b91506115748261150d565b604082019050919050565b600060208201905081810360008301526115988161155c565b9050919050565b600081905092915050565b50565b60006115ba60008361159f565b91506115c5826115aa565b600082019050919050565b60006115db826115ad565b9150819050919050565b7f4641494c45445f544f5f57495448445241575f45544845520000000000000000600082015250565b600061161b601883610f80565b9150611626826115e5565b602082019050919050565b6000602082019050818103600083015261164a8161160e565b9050919050565b7f50726f706f73616c20646561646c696e65206e6f742065786365656465640000600082015250565b6000611687601e83610f80565b915061169282611651565b602082019050919050565b600060208201905081810360008301526116b68161167a565b9050919050565b7f50726f706f73616c206861732062656564206578637574656400000000000000600082015250565b60006116f3601983610f80565b91506116fe826116bd565b602082019050919050565b60006020820190508181036000830152611722816116e6565b9050919050565b7f4e6f7420656e6f75676820666f756e6473000000000000000000000000000000600082015250565b600061175f601183610f80565b915061176a82611729565b602082019050919050565b6000602082019050818103600083015261178e81611752565b9050919050565b7f50726f706f73616c20646561646c696e65206578636565646564000000000000600082015250565b60006117cb601a83610f80565b91506117d682611795565b602082019050919050565b600060208201905081810360008301526117fa816117be565b9050919050565b60006040820190506118166000830185611028565b6118236020830184610fe7565b9392505050565b7f766f74652070726f706f73616c00000000000000000000000000000000000000600082015250565b6000611860600d83610f80565b915061186b8261182a565b602082019050919050565b6000608082019050818103600083015261188f81611853565b905061189e6020830186611028565b6118ab6040830185610fe7565b6118b86060830184611165565b949350505050565b7f414c52454144595f564f54454400000000000000000000000000000000000000600082015250565b60006118f6600d83610f80565b9150611901826118c0565b602082019050919050565b60006020820190508181036000830152611925816118e9565b9050919050565b7f4e487b7100000000000000000000000000000000000000000000000000000000600052602160045260246000fd5b7f4f776e61626c653a206e6577206f776e657220697320746865207a65726f206160008201527f6464726573730000000000000000000000000000000000000000000000000000602082015250565b60006119b7602683610f80565b91506119c28261195b565b604082019050919050565b600060208201905081810360008301526119e6816119aa565b9050919050565b7f4f776e61626c653a2063616c6c6572206973206e6f7420746865206f776e6572600082015250565b6000611a23602083610f80565b9150611a2e826119ed565b602082019050919050565b60006020820190508181036000830152611a5281611a16565b905091905056fea26469706673582212202bf47793dc2b90c65fad41629963d034e85bb90d28a719a95cb0e58184bfe80a64736f6c63430008190033",
  "devdoc": {
    "kind": "dev",
    "methods": {
      "createProposal(uint256)": {
        "details": "createProposal() allow holders of CryptoDevs to create a new proposal in the DAO",
        "params": {
          "_nftTokenId": "- the tokenId of NFT to be purchased from nftMarketplace if proposal passed;"
        },
        "returns": {
          "_0": "Returns the proposal index for the newly created proposal;"
        }
      },
      "owner()": {
        "details": "Returns the address of the current owner."
      },
      "renounceOwnership()": {
        "details": "Leaves the contract without owner. It will not be possible to call `onlyOwner` functions. Can only be called by the current owner. NOTE: Renouncing ownership will leave the contract without an owner, thereby disabling any functionality that is only available to the owner."
      },
      "transferOwnership(address)": {
        "details": "Transfers ownership of the contract to a new account (`newOwner`). Can only be called by the current owner."
      }
    },
    "version": 1
  },
  "userdoc": {
    "kind": "user",
    "methods": {},
    "version": 1
  },
  "storageLayout": {
    "storage": [
      {
        "astId": 7,
        "contract": "contracts/CryptoDevsDao.sol:CryptoDevsNFTDao",
        "label": "_owner",
        "offset": 0,
        "slot": "0",
        "type": "t_address"
      },
      {
        "astId": 207,
        "contract": "contracts/CryptoDevsDao.sol:CryptoDevsNFTDao",
        "label": "proposals",
        "offset": 0,
        "slot": "1",
        "type": "t_mapping(t_uint256,t_struct(Proposal)200_storage)"
      },
      {
        "astId": 209,
        "contract": "contracts/CryptoDevsDao.sol:CryptoDevsNFTDao",
        "label": "size",
        "offset": 0,
        "slot": "2",
        "type": "t_uint256"
      },
      {
        "astId": 212,
        "contract": "contracts/CryptoDevsDao.sol:CryptoDevsNFTDao",
        "label": "cryptoDevsNFT",
        "offset": 0,
        "slot": "3",
        "type": "t_contract(ICryptoDevsNFT)164"
      },
      {
        "astId": 215,
        "contract": "contracts/CryptoDevsDao.sol:CryptoDevsNFTDao",
        "label": "nftMarketplace",
        "offset": 0,
        "slot": "4",
        "type": "t_contract(IFakeNFTMarketplace)185"
      }
    ],
    "types": {
      "t_address": {
        "encoding": "inplace",
        "label": "address",
        "numberOfBytes": "20"
      },
      "t_bool": {
        "encoding": "inplace",
        "label": "bool",
        "numberOfBytes": "1"
      },
      "t_contract(ICryptoDevsNFT)164": {
        "encoding": "inplace",
        "label": "contract ICryptoDevsNFT",
        "numberOfBytes": "20"
      },
      "t_contract(IFakeNFTMarketplace)185": {
        "encoding": "inplace",
        "label": "contract IFakeNFTMarketplace",
        "numberOfBytes": "20"
      },
      "t_mapping(t_uint256,t_bool)": {
        "encoding": "mapping",
        "key": "t_uint256",
        "label": "mapping(uint256 => bool)",
        "numberOfBytes": "32",
        "value": "t_bool"
      },
      "t_mapping(t_uint256,t_struct(Proposal)200_storage)": {
        "encoding": "mapping",
        "key": "t_uint256",
        "label": "mapping(uint256 => struct Proposal)",
        "numberOfBytes": "32",
        "value": "t_struct(Proposal)200_storage"
      },
      "t_struct(Proposal)200_storage": {
        "encoding": "inplace",
        "label": "struct Proposal",
        "members": [
          {
            "astId": 187,
            "contract": "contracts/CryptoDevsDao.sol:CryptoDevsNFTDao",
            "label": "nftTokenId",
            "offset": 0,
            "slot": "0",
            "type": "t_uint256"
          },
          {
            "astId": 189,
            "contract": "contracts/CryptoDevsDao.sol:CryptoDevsNFTDao",
            "label": "deadline",
            "offset": 0,
            "slot": "1",
            "type": "t_uint256"
          },
          {
            "astId": 191,
            "contract": "contracts/CryptoDevsDao.sol:CryptoDevsNFTDao",
            "label": "approvals",
            "offset": 0,
            "slot": "2",
            "type": "t_uint256"
          },
          {
            "astId": 193,
            "contract": "contracts/CryptoDevsDao.sol:CryptoDevsNFTDao",
            "label": "rejections",
            "offset": 0,
            "slot": "3",
            "type": "t_uint256"
          },
          {
            "astId": 195,
            "contract": "contracts/CryptoDevsDao.sol:CryptoDevsNFTDao",
            "label": "excuted",
            "offset": 0,
            "slot": "4",
            "type": "t_bool"
          },
          {
            "astId": 199,
            "contract": "contracts/CryptoDevsDao.sol:CryptoDevsNFTDao",
            "label": "voters",
            "offset": 0,
            "slot": "5",
            "type": "t_mapping(t_uint256,t_bool)"
          }
        ],
        "numberOfBytes": "192"
      },
      "t_uint256": {
        "encoding": "inplace",
        "label": "uint256",
        "numberOfBytes": "32"
      }
    }
  }
}