{
  "address": "0xCf7Ed3AccA5a467e9e704C703E8D87F634fB0Fc9",
  "abi": [
    {
      "inputs": [
        {
          "internalType": "address",
          "name": "_coordinatorAddress",
          "type": "address"
        },
        {
          "internalType": "uint64",
          "name": "_subscriptionId",
          "type": "uint64"
        },
        {
          "internalType": "bytes32",
          "name": "_keyHash",
          "type": "bytes32"
        }
      ],
      "stateMutability": "nonpayable",
      "type": "constructor"
    },
    {
      "inputs": [
        {
          "internalType": "address",
          "name": "have",
          "type": "address"
        },
        {
          "internalType": "address",
          "name": "want",
          "type": "address"
        }
      ],
      "name": "OnlyCoordinatorCanFulfill",
      "type": "error"
    },
    {
      "inputs": [
        {
          "internalType": "address",
          "name": "owner",
          "type": "address"
        }
      ],
      "name": "OwnableInvalidOwner",
      "type": "error"
    },
    {
      "inputs": [
        {
          "internalType": "address",
          "name": "account",
          "type": "address"
        }
      ],
      "name": "OwnableUnauthorizedAccount",
      "type": "error"
    },
    {
      "anonymous": false,
      "inputs": [
        {
          "indexed": false,
          "internalType": "uint256",
          "name": "gameId",
          "type": "uint256"
        }
      ],
      "name": "GameStarted",
      "type": "event"
    },
    {
      "anonymous": false,
      "inputs": [
        {
          "components": [
            {
              "internalType": "uint256",
              "name": "gameId",
              "type": "uint256"
            },
            {
              "internalType": "enum RandomWinnerGame.GameStatus",
              "name": "status",
              "type": "uint8"
            },
            {
              "internalType": "uint256",
              "name": "maxPlayers",
              "type": "uint256"
            },
            {
              "internalType": "uint256",
              "name": "entryFeeNumerator",
              "type": "uint256"
            },
            {
              "internalType": "uint256",
              "name": "entryFeeDenominator",
              "type": "uint256"
            },
            {
              "internalType": "address[]",
              "name": "players",
              "type": "address[]"
            },
            {
              "internalType": "address",
              "name": "winner",
              "type": "address"
            },
            {
              "internalType": "address",
              "name": "owner",
              "type": "address"
            }
          ],
          "indexed": false,
          "internalType": "struct RandomWinnerGame.Game",
          "name": "game",
          "type": "tuple"
        }
      ],
      "name": "GameStatusChanged",
      "type": "event"
    },
    {
      "anonymous": false,
      "inputs": [
        {
          "indexed": false,
          "internalType": "uint256",
          "name": "gameId",
          "type": "uint256"
        },
        {
          "indexed": false,
          "internalType": "address",
          "name": "owner",
          "type": "address"
        },
        {
          "indexed": false,
          "internalType": "uint256",
          "name": "maxPlayers",
          "type": "uint256"
        },
        {
          "indexed": false,
          "internalType": "uint256",
          "name": "entryFee",
          "type": "uint256"
        }
      ],
      "name": "NewGame",
      "type": "event"
    },
    {
      "anonymous": false,
      "inputs": [
        {
          "indexed": true,
          "internalType": "address",
          "name": "previousOwner",
          "type": "address"
        },
        {
          "indexed": true,
          "internalType": "address",
          "name": "newOwner",
          "type": "address"
        }
      ],
      "name": "OwnershipTransferred",
      "type": "event"
    },
    {
      "anonymous": false,
      "inputs": [
        {
          "indexed": false,
          "internalType": "uint256",
          "name": "gameId",
          "type": "uint256"
        },
        {
          "indexed": false,
          "internalType": "address",
          "name": "_address",
          "type": "address"
        },
        {
          "indexed": false,
          "internalType": "uint256",
          "name": "value",
          "type": "uint256"
        }
      ],
      "name": "PlayerJoined",
      "type": "event"
    },
    {
      "anonymous": false,
      "inputs": [
        {
          "indexed": false,
          "internalType": "uint256",
          "name": "gameId",
          "type": "uint256"
        },
        {
          "indexed": false,
          "internalType": "address",
          "name": "winner",
          "type": "address"
        }
      ],
      "name": "finishGameEvent",
      "type": "event"
    },
    {
      "anonymous": false,
      "inputs": [
        {
          "indexed": false,
          "internalType": "uint256",
          "name": "requestId",
          "type": "uint256"
        }
      ],
      "name": "pickWinnerCall",
      "type": "event"
    },
    {
      "anonymous": false,
      "inputs": [
        {
          "indexed": false,
          "internalType": "uint256",
          "name": "requestId",
          "type": "uint256"
        },
        {
          "indexed": false,
          "internalType": "uint256[]",
          "name": "randomwords",
          "type": "uint256[]"
        },
        {
          "indexed": false,
          "internalType": "uint256",
          "name": "gameId",
          "type": "uint256"
        }
      ],
      "name": "receiveRandomWord",
      "type": "event"
    },
    {
      "inputs": [
        {
          "internalType": "uint256",
          "name": "",
          "type": "uint256"
        }
      ],
      "name": "games",
      "outputs": [
        {
          "internalType": "uint256",
          "name": "gameId",
          "type": "uint256"
        },
        {
          "internalType": "enum RandomWinnerGame.GameStatus",
          "name": "status",
          "type": "uint8"
        },
        {
          "internalType": "uint256",
          "name": "maxPlayers",
          "type": "uint256"
        },
        {
          "internalType": "uint256",
          "name": "entryFeeNumerator",
          "type": "uint256"
        },
        {
          "internalType": "uint256",
          "name": "entryFeeDenominator",
          "type": "uint256"
        },
        {
          "internalType": "address",
          "name": "winner",
          "type": "address"
        },
        {
          "internalType": "address",
          "name": "owner",
          "type": "address"
        }
      ],
      "stateMutability": "view",
      "type": "function"
    },
    {
      "inputs": [],
      "name": "gasLimit",
      "outputs": [
        {
          "internalType": "uint32",
          "name": "",
          "type": "uint32"
        }
      ],
      "stateMutability": "view",
      "type": "function"
    },
    {
      "inputs": [
        {
          "internalType": "address",
          "name": "",
          "type": "address"
        }
      ],
      "name": "holdingGame",
      "outputs": [
        {
          "internalType": "uint256",
          "name": "",
          "type": "uint256"
        }
      ],
      "stateMutability": "view",
      "type": "function"
    },
    {
      "inputs": [
        {
          "internalType": "uint256",
          "name": "gameId",
          "type": "uint256"
        }
      ],
      "name": "joinGame",
      "outputs": [],
      "stateMutability": "payable",
      "type": "function"
    },
    {
      "inputs": [],
      "name": "keyHash",
      "outputs": [
        {
          "internalType": "bytes32",
          "name": "",
          "type": "bytes32"
        }
      ],
      "stateMutability": "view",
      "type": "function"
    },
    {
      "inputs": [
        {
          "internalType": "uint256",
          "name": "_maxPlayers",
          "type": "uint256"
        },
        {
          "internalType": "uint256",
          "name": "_entryFeeNumerator",
          "type": "uint256"
        },
        {
          "internalType": "uint256",
          "name": "_entryFeeDenominator",
          "type": "uint256"
        }
      ],
      "name": "newGame",
      "outputs": [],
      "stateMutability": "nonpayable",
      "type": "function"
    },
    {
      "inputs": [],
      "name": "owner",
      "outputs": [
        {
          "internalType": "address",
          "name": "",
          "type": "address"
        }
      ],
      "stateMutability": "view",
      "type": "function"
    },
    {
      "inputs": [],
      "name": "pickWinner",
      "outputs": [],
      "stateMutability": "nonpayable",
      "type": "function"
    },
    {
      "inputs": [
        {
          "internalType": "uint256",
          "name": "requestId",
          "type": "uint256"
        },
        {
          "internalType": "uint256[]",
          "name": "randomWords",
          "type": "uint256[]"
        }
      ],
      "name": "rawFulfillRandomWords",
      "outputs": [],
      "stateMutability": "nonpayable",
      "type": "function"
    },
    {
      "inputs": [],
      "name": "renounceOwnership",
      "outputs": [],
      "stateMutability": "nonpayable",
      "type": "function"
    },
    {
      "inputs": [
        {
          "internalType": "uint32",
          "name": "_gasLimit",
          "type": "uint32"
        }
      ],
      "name": "setGasLimit",
      "outputs": [],
      "stateMutability": "nonpayable",
      "type": "function"
    },
    {
      "inputs": [],
      "name": "startGame",
      "outputs": [],
      "stateMutability": "nonpayable",
      "type": "function"
    },
    {
      "inputs": [],
      "name": "subscriptionId",
      "outputs": [
        {
          "internalType": "uint64",
          "name": "",
          "type": "uint64"
        }
      ],
      "stateMutability": "view",
      "type": "function"
    },
    {
      "inputs": [],
      "name": "totalGames",
      "outputs": [
        {
          "internalType": "uint256",
          "name": "",
          "type": "uint256"
        }
      ],
      "stateMutability": "view",
      "type": "function"
    },
    {
      "inputs": [
        {
          "internalType": "address",
          "name": "newOwner",
          "type": "address"
        }
      ],
      "name": "transferOwnership",
      "outputs": [],
      "stateMutability": "nonpayable",
      "type": "function"
    }
  ],
  "transactionHash": "0xec07b9998903ad7fd11539e3549af2f76616766b53ad147f9d49bd990f46e277",
  "args": [
    "0x8103b0a8a00be2ddc778e6e7eaa21791cd364625",
    "10595",
    "0x474e34a077df58807dbe9c96d3c009b23b3c6d0cce433e59bbf5b34f823bc56c"
  ],
  "numDeployments": 1,
  "solcInputHash": "30baf23ed0f116980b0099621219289f",
  "bytecode": "0x60a06040526000600455620186a0600560006101000a81548163ffffffff021916908363ffffffff1602179055503480156200003a57600080fd5b50604051620027f8380380620027f8833981810160405281019062000060919062000346565b33838073ffffffffffffffffffffffffffffffffffffffff1660808173ffffffffffffffffffffffffffffffffffffffff168152505050600073ffffffffffffffffffffffffffffffffffffffff168173ffffffffffffffffffffffffffffffffffffffff16036200010c5760006040517f1e4fbdf7000000000000000000000000000000000000000000000000000000008152600401620001039190620003b3565b60405180910390fd5b6200011d816200019860201b60201c565b5082600560046101000a81548173ffffffffffffffffffffffffffffffffffffffff021916908373ffffffffffffffffffffffffffffffffffffffff16021790555081600560186101000a81548167ffffffffffffffff021916908367ffffffffffffffff16021790555080600681905550505050620003d0565b60008060009054906101000a900473ffffffffffffffffffffffffffffffffffffffff169050816000806101000a81548173ffffffffffffffffffffffffffffffffffffffff021916908373ffffffffffffffffffffffffffffffffffffffff1602179055508173ffffffffffffffffffffffffffffffffffffffff168173ffffffffffffffffffffffffffffffffffffffff167f8be0079c531659141344cd1fd0a4f28419497f9722a3daafe3b4186f6b6457e060405160405180910390a35050565b600080fd5b600073ffffffffffffffffffffffffffffffffffffffff82169050919050565b60006200028e8262000261565b9050919050565b620002a08162000281565b8114620002ac57600080fd5b50565b600081519050620002c08162000295565b92915050565b600067ffffffffffffffff82169050919050565b620002e581620002c6565b8114620002f157600080fd5b50565b6000815190506200030581620002da565b92915050565b6000819050919050565b62000320816200030b565b81146200032c57600080fd5b50565b600081519050620003408162000315565b92915050565b6000806000606084860312156200036257620003616200025c565b5b60006200037286828701620002af565b93505060206200038586828701620002f4565b925050604062000398868287016200032f565b9150509250925092565b620003ad8162000281565b82525050565b6000602082019050620003ca6000830184620003a2565b92915050565b608051612405620003f3600039600081816103f4015261044801526124056000f3fe6080604052600436106100e85760003560e01c80635d495aea1161008a578063d65ab5f211610059578063d65ab5f2146102c2578063efaa55a0146102d9578063f2fde38b146102f5578063f68016b71461031e576100e8565b80635d495aea1461023e57806361728f3914610255578063715018a6146102805780638da5cb5b14610297576100e8565b80632c4e591b116100c65780632c4e591b1461018457806330852db8146101af57806352d84c62146101d857806357c5a6cc14610201576100e8565b806309c1ba2e146100ed578063117a5b90146101185780631fe543e31461015b575b600080fd5b3480156100f957600080fd5b50610102610349565b60405161010f9190611356565b60405180910390f35b34801561012457600080fd5b5061013f600480360381019061013a91906113bb565b610363565b60405161015297969594939291906114af565b60405180910390f35b34801561016757600080fd5b50610182600480360381019061017d9190611677565b6103f2565b005b34801561019057600080fd5b506101996104b2565b6040516101a691906116d3565b60405180910390f35b3480156101bb57600080fd5b506101d660048036038101906101d191906116ee565b6104b8565b005b3480156101e457600080fd5b506101ff60048036038101906101fa919061177d565b61072c565b005b34801561020d57600080fd5b50610228600480360381019061022391906117d6565b610758565b60405161023591906116d3565b60405180910390f35b34801561024a57600080fd5b50610253610770565b005b34801561026157600080fd5b5061026a61088a565b604051610277919061181c565b60405180910390f35b34801561028c57600080fd5b50610295610890565b005b3480156102a357600080fd5b506102ac6108a4565b6040516102b99190611837565b60405180910390f35b3480156102ce57600080fd5b506102d76108cd565b005b6102f360048036038101906102ee91906113bb565b610a12565b005b34801561030157600080fd5b5061031c600480360381019061031791906117d6565b610c4b565b005b34801561032a57600080fd5b50610333610cd1565b6040516103409190611861565b60405180910390f35b600560189054906101000a900467ffffffffffffffff1681565b60016020528060005260406000206000915090508060000154908060010160009054906101000a900460ff16908060020154908060030154908060040154908060060160009054906101000a900473ffffffffffffffffffffffffffffffffffffffff16908060070160009054906101000a900473ffffffffffffffffffffffffffffffffffffffff16905087565b7f000000000000000000000000000000000000000000000000000000000000000073ffffffffffffffffffffffffffffffffffffffff163373ffffffffffffffffffffffffffffffffffffffff16146104a457337f00000000000000000000000000000000000000000000000000000000000000006040517f1cf993f400000000000000000000000000000000000000000000000000000000815260040161049b92919061187c565b60405180910390fd5b6104ae8282610ce7565b5050565b60045481565b600083116104fb576040517f08c379a00000000000000000000000000000000000000000000000000000000081526004016104f290611928565b60405180910390fd5b6000600260003373ffffffffffffffffffffffffffffffffffffffff1673ffffffffffffffffffffffffffffffffffffffff168152602001908152602001600020541461057d576040517f08c379a0000000000000000000000000000000000000000000000000000000008152600401610574906119ba565b60405180910390fd5b6004600081548092919061059090611a09565b9190505550600060045490506000600160008381526020019081526020016000209050838160030181905550828160040181905550818160000181905550848160020181905550338160070160006101000a81548173ffffffffffffffffffffffffffffffffffffffff021916908373ffffffffffffffffffffffffffffffffffffffff16021790555060008160010160006101000a81548160ff02191690836002811115610642576106416113f7565b5b021790555081600260003373ffffffffffffffffffffffffffffffffffffffff1673ffffffffffffffffffffffffffffffffffffffff168152602001908152602001600020819055507fc842bb72e77cfc6a67954f802d5715c4b59efcbc5d609f17495e3c124a76558d816040516106ba9190611cdc565b60405180910390a17f4c2f7f67b6c0dd532193a9bc2e478a5ca8e7cad8dc7b9a1eae81ad4b76dd35718233878460040154670de0b6b3a764000086600301546107039190611cfe565b61070d9190611d6f565b60405161071d9493929190611da0565b60405180910390a15050505050565b610734610e65565b80600560006101000a81548163ffffffff021916908363ffffffff16021790555050565b60026020528060005260406000206000915090505481565b6000600260003373ffffffffffffffffffffffffffffffffffffffff1673ffffffffffffffffffffffffffffffffffffffff16815260200190815260200160002054036107f2576040517f08c379a00000000000000000000000000000000000000000000000000000000081526004016107e990611e31565b60405180910390fd5b60006107fc610eec565b90507f6c5c69a9e2b098dc9841306b4573c7224354e73a998a15e21805b39bb649617e8160405161082d91906116d3565b60405180910390a1336003600083815260200190815260200160002060006101000a81548173ffffffffffffffffffffffffffffffffffffffff021916908373ffffffffffffffffffffffffffffffffffffffff16021790555050565b60065481565b610898610e65565b6108a26000610fc5565b565b60008060009054906101000a900473ffffffffffffffffffffffffffffffffffffffff16905090565b6000600260003373ffffffffffffffffffffffffffffffffffffffff1673ffffffffffffffffffffffffffffffffffffffff168152602001908152602001600020540361094f576040517f08c379a000000000000000000000000000000000000000000000000000000000815260040161094690611e31565b60405180910390fd5b6000600260003373ffffffffffffffffffffffffffffffffffffffff1673ffffffffffffffffffffffffffffffffffffffff168152602001908152602001600020549050600060016000838152602001908152602001600020905060018160010160006101000a81548160ff021916908360028111156109d2576109d16113f7565b5b02179055507f50ad08f58a27f2851d7e3a1b3a6a46b290f2ce677e99642d30ff639721e7779082604051610a0691906116d3565b60405180910390a15050565b80600060016000838152602001908152602001600020905060016002811115610a3e57610a3d6113f7565b5b8160010160009054906101000a900460ff166002811115610a6257610a616113f7565b5b14610aa2576040517f08c379a0000000000000000000000000000000000000000000000000000000008152600401610a9990611e9d565b60405180910390fd5b8060020154816005018054905010610aef576040517f08c379a0000000000000000000000000000000000000000000000000000000008152600401610ae690611f09565b60405180910390fd5b8060040154670de0b6b3a76400008260030154610b0c9190611cfe565b610b169190611d6f565b3414610b57576040517f08c379a0000000000000000000000000000000000000000000000000000000008152600401610b4e90611f9b565b60405180910390fd5b600060016000858152602001908152602001600020905080600501339080600181540180825580915050600190039060005260206000200160009091909190916101000a81548173ffffffffffffffffffffffffffffffffffffffff021916908373ffffffffffffffffffffffffffffffffffffffff1602179055507fc842bb72e77cfc6a67954f802d5715c4b59efcbc5d609f17495e3c124a76558d81604051610c029190611cdc565b60405180910390a17f03dfbe1fcb4e2d61f3b4a0c93d8f814c92250618b3387f396cc9fc9fafe2c203843334604051610c3d93929190611fbb565b60405180910390a150505050565b610c53610e65565b600073ffffffffffffffffffffffffffffffffffffffff168173ffffffffffffffffffffffffffffffffffffffff1603610cc55760006040517f1e4fbdf7000000000000000000000000000000000000000000000000000000008152600401610cbc9190611837565b60405180910390fd5b610cce81610fc5565b50565b600560009054906101000a900463ffffffff1681565b600073ffffffffffffffffffffffffffffffffffffffff166003600084815260200190815260200160002060009054906101000a900473ffffffffffffffffffffffffffffffffffffffff1673ffffffffffffffffffffffffffffffffffffffff1603610d89576040517f08c379a0000000000000000000000000000000000000000000000000000000008152600401610d809061203e565b60405180910390fd5b6000600260006003600086815260200190815260200160002060009054906101000a900473ffffffffffffffffffffffffffffffffffffffff1673ffffffffffffffffffffffffffffffffffffffff1673ffffffffffffffffffffffffffffffffffffffff1681526020019081526020016000205490507fa4766db0c6aa5f4459d4eec39096c95c259be5d3b38c73c175ffad87b172f742838383604051610e339392919061210d565b60405180910390a1610e608183600081518110610e5357610e5261214b565b5b6020026020010151611089565b505050565b610e6d61132b565b73ffffffffffffffffffffffffffffffffffffffff16610e8b6108a4565b73ffffffffffffffffffffffffffffffffffffffff1614610eea57610eae61132b565b6040517f118cdaa7000000000000000000000000000000000000000000000000000000008152600401610ee19190611837565b60405180910390fd5b565b6000600560049054906101000a900473ffffffffffffffffffffffffffffffffffffffff1673ffffffffffffffffffffffffffffffffffffffff16635d3b1d30600654600560189054906101000a900467ffffffffffffffff166003600560009054906101000a900463ffffffff1660016040518663ffffffff1660e01b8152600401610f7d959493929190612208565b6020604051808303816000875af1158015610f9c573d6000803e3d6000fd5b505050506040513d601f19601f82011682018060405250810190610fc09190612270565b905090565b60008060009054906101000a900473ffffffffffffffffffffffffffffffffffffffff169050816000806101000a81548173ffffffffffffffffffffffffffffffffffffffff021916908373ffffffffffffffffffffffffffffffffffffffff1602179055508173ffffffffffffffffffffffffffffffffffffffff168173ffffffffffffffffffffffffffffffffffffffff167f8be0079c531659141344cd1fd0a4f28419497f9722a3daafe3b4186f6b6457e060405160405180910390a35050565b600060016000848152602001908152602001600020905060028160010160006101000a81548160ff021916908360028111156110c8576110c76113f7565b5b02179055506000600260008360070160009054906101000a900473ffffffffffffffffffffffffffffffffffffffff1673ffffffffffffffffffffffffffffffffffffffff1673ffffffffffffffffffffffffffffffffffffffff1681526020019081526020016000208190555060008160050182600201548461114c919061229d565b8154811061115d5761115c61214b565b5b9060005260206000200160009054906101000a900473ffffffffffffffffffffffffffffffffffffffff169050808260060160006101000a81548173ffffffffffffffffffffffffffffffffffffffff021916908373ffffffffffffffffffffffffffffffffffffffff16021790555060008260040154670de0b6b3a764000084600301546111ec9190611cfe565b6111f69190611d6f565b905060008273ffffffffffffffffffffffffffffffffffffffff168285600201546112219190611cfe565b60405161122d906122ff565b60006040518083038185875af1925050503d806000811461126a576040519150601f19603f3d011682016040523d82523d6000602084013e61126f565b606091505b505090507fc842bb72e77cfc6a67954f802d5715c4b59efcbc5d609f17495e3c124a76558d846040516112a29190611cdc565b60405180910390a17f219d5e79d7957c86c2a7527d9e79783bbe8e3eb22bd55473a6c334eca4da426c86846040516112db929190612314565b60405180910390a180611323576040517f08c379a000000000000000000000000000000000000000000000000000000000815260040161131a906123af565b60405180910390fd5b505050505050565b600033905090565b600067ffffffffffffffff82169050919050565b61135081611333565b82525050565b600060208201905061136b6000830184611347565b92915050565b6000604051905090565b600080fd5b600080fd5b6000819050919050565b61139881611385565b81146113a357600080fd5b50565b6000813590506113b58161138f565b92915050565b6000602082840312156113d1576113d061137b565b5b60006113df848285016113a6565b91505092915050565b6113f181611385565b82525050565b7f4e487b7100000000000000000000000000000000000000000000000000000000600052602160045260246000fd5b60038110611437576114366113f7565b5b50565b600081905061144882611426565b919050565b60006114588261143a565b9050919050565b6114688161144d565b82525050565b600073ffffffffffffffffffffffffffffffffffffffff82169050919050565b60006114998261146e565b9050919050565b6114a98161148e565b82525050565b600060e0820190506114c4600083018a6113e8565b6114d1602083018961145f565b6114de60408301886113e8565b6114eb60608301876113e8565b6114f860808301866113e8565b61150560a08301856114a0565b61151260c08301846114a0565b98975050505050505050565b600080fd5b6000601f19601f8301169050919050565b7f4e487b7100000000000000000000000000000000000000000000000000000000600052604160045260246000fd5b61156c82611523565b810181811067ffffffffffffffff8211171561158b5761158a611534565b5b80604052505050565b600061159e611371565b90506115aa8282611563565b919050565b600067ffffffffffffffff8211156115ca576115c9611534565b5b602082029050602081019050919050565b600080fd5b60006115f36115ee846115af565b611594565b90508083825260208201905060208402830185811115611616576116156115db565b5b835b8181101561163f578061162b88826113a6565b845260208401935050602081019050611618565b5050509392505050565b600082601f83011261165e5761165d61151e565b5b813561166e8482602086016115e0565b91505092915050565b6000806040838503121561168e5761168d61137b565b5b600061169c858286016113a6565b925050602083013567ffffffffffffffff8111156116bd576116bc611380565b5b6116c985828601611649565b9150509250929050565b60006020820190506116e860008301846113e8565b92915050565b6000806000606084860312156117075761170661137b565b5b6000611715868287016113a6565b9350506020611726868287016113a6565b9250506040611737868287016113a6565b9150509250925092565b600063ffffffff82169050919050565b61175a81611741565b811461176557600080fd5b50565b60008135905061177781611751565b92915050565b6000602082840312156117935761179261137b565b5b60006117a184828501611768565b91505092915050565b6117b38161148e565b81146117be57600080fd5b50565b6000813590506117d0816117aa565b92915050565b6000602082840312156117ec576117eb61137b565b5b60006117fa848285016117c1565b91505092915050565b6000819050919050565b61181681611803565b82525050565b6000602082019050611831600083018461180d565b92915050565b600060208201905061184c60008301846114a0565b92915050565b61185b81611741565b82525050565b60006020820190506118766000830184611852565b92915050565b600060408201905061189160008301856114a0565b61189e60208301846114a0565b9392505050565b600082825260208201905092915050565b7f556e457870656374656420617267756d656e7473205b5f6d6178506c6179657260008201527f735d3a2030000000000000000000000000000000000000000000000000000000602082015250565b60006119126025836118a5565b915061191d826118b6565b604082019050919050565b6000602082019050818103600083015261194181611905565b9050919050565b7f43757272656e746c7920686f6c64696e6720612067616d652c2077616974207560008201527f74696c207468652067616d6520656e6400000000000000000000000000000000602082015250565b60006119a46030836118a5565b91506119af82611948565b604082019050919050565b600060208201905081810360008301526119d381611997565b9050919050565b7f4e487b7100000000000000000000000000000000000000000000000000000000600052601160045260246000fd5b6000611a1482611385565b91507fffffffffffffffffffffffffffffffffffffffffffffffffffffffffffffffff8203611a4657611a456119da565b5b600182019050919050565b60008160001c9050919050565b6000819050919050565b6000611a7b611a7683611a51565b611a5e565b9050919050565b611a8b81611385565b82525050565b600060ff82169050919050565b6000611ab1611aac83611a51565b611a91565b9050919050565b611ac18161144d565b82525050565b600081549050919050565b600082825260208201905092915050565b60008190508160005260206000209050919050565b611b018161148e565b82525050565b6000611b138383611af8565b60208301905092915050565b600073ffffffffffffffffffffffffffffffffffffffff82169050919050565b6000611b52611b4d83611a51565b611b1f565b9050919050565b6000611b658254611b3f565b9050919050565b6000600182019050919050565b6000611b8482611ac7565b611b8e8185611ad2565b9350611b9983611ae3565b8060005b83811015611bd157611bae82611b59565b611bb88882611b07565b9750611bc383611b6c565b925050600181019050611b9d565b5085935050505092915050565b600061010083016000808401549050611bf681611a68565b611c036000870182611a82565b5060018401549050611c1481611a9e565b611c216020870182611ab8565b5060028401549050611c3281611a68565b611c3f6040870182611a82565b5060038401549050611c5081611a68565b611c5d6060870182611a82565b5060048401549050611c6e81611a68565b611c7b6080870182611a82565b506005840185830360a0870152611c928382611b79565b92505060068401549050611ca581611b3f565b611cb260c0870182611af8565b5060078401549050611cc381611b3f565b611cd060e0870182611af8565b50819250505092915050565b60006020820190508181036000830152611cf68184611bde565b905092915050565b6000611d0982611385565b9150611d1483611385565b9250828202611d2281611385565b91508282048414831517611d3957611d386119da565b5b5092915050565b7f4e487b7100000000000000000000000000000000000000000000000000000000600052601260045260246000fd5b6000611d7a82611385565b9150611d8583611385565b925082611d9557611d94611d40565b5b828204905092915050565b6000608082019050611db560008301876113e8565b611dc260208301866114a0565b611dcf60408301856113e8565b611ddc60608301846113e8565b95945050505050565b7f506c6561736520686f6c642061206e65772067616d6500000000000000000000600082015250565b6000611e1b6016836118a5565b9150611e2682611de5565b602082019050919050565b60006020820190508181036000830152611e4a81611e0e565b9050919050565b7f47616d6520686173206e6f74206265656e207374617274656420796574000000600082015250565b6000611e87601d836118a5565b9150611e9282611e51565b602082019050919050565b60006020820190508181036000830152611eb681611e7a565b9050919050565b7f47616d652069732066756c6c0000000000000000000000000000000000000000600082015250565b6000611ef3600c836118a5565b9150611efe82611ebd565b602082019050919050565b60006020820190508181036000830152611f2281611ee6565b9050919050565b7f496e73756666696369656e7420657468657220746f206a6f696e20746865206760008201527f616d650000000000000000000000000000000000000000000000000000000000602082015250565b6000611f856023836118a5565b9150611f9082611f29565b604082019050919050565b60006020820190508181036000830152611fb481611f78565b9050919050565b6000606082019050611fd060008301866113e8565b611fdd60208301856114a0565b611fea60408301846113e8565b949350505050565b7f52657175657374206e6f7420666f756e64000000000000000000000000000000600082015250565b60006120286011836118a5565b915061203382611ff2565b602082019050919050565b600060208201905081810360008301526120578161201b565b9050919050565b600081519050919050565b600082825260208201905092915050565b6000819050602082019050919050565b60006120968383611a82565b60208301905092915050565b6000602082019050919050565b60006120ba8261205e565b6120c48185612069565b93506120cf8361207a565b8060005b838110156121005781516120e7888261208a565b97506120f2836120a2565b9250506001810190506120d3565b5085935050505092915050565b600060608201905061212260008301866113e8565b818103602083015261213481856120af565b905061214360408301846113e8565b949350505050565b7f4e487b7100000000000000000000000000000000000000000000000000000000600052603260045260246000fd5b6000819050919050565b600061ffff82169050919050565b6000819050919050565b60006121b76121b26121ad8461217a565b612192565b612184565b9050919050565b6121c78161219c565b82525050565b6000819050919050565b60006121f26121ed6121e8846121cd565b612192565b611741565b9050919050565b612202816121d7565b82525050565b600060a08201905061221d600083018861180d565b61222a6020830187611347565b61223760408301866121be565b6122446060830185611852565b61225160808301846121f9565b9695505050505050565b60008151905061226a8161138f565b92915050565b6000602082840312156122865761228561137b565b5b60006122948482850161225b565b91505092915050565b60006122a882611385565b91506122b383611385565b9250826122c3576122c2611d40565b5b828206905092915050565b600081905092915050565b50565b60006122e96000836122ce565b91506122f4826122d9565b600082019050919050565b600061230a826122dc565b9150819050919050565b600060408201905061232960008301856113e8565b61233660208301846114a0565b9392505050565b7f46696e6973682047616d65206661696c65643a2063616e6e6f742073656e742060008201527f657468657220746f2077696e6e65720000000000000000000000000000000000602082015250565b6000612399602f836118a5565b91506123a48261233d565b604082019050919050565b600060208201905081810360008301526123c88161238c565b905091905056fea26469706673582212209c63f1d5fa8ffa6f658ba179ca67140114ca900aa508b7d0463ffc9bdfac1b8464736f6c63430008180033",
  "devdoc": {
    "errors": {
      "OwnableInvalidOwner(address)": [
        {
          "details": "The owner is not a valid owner account. (eg. `address(0)`)"
        }
      ],
      "OwnableUnauthorizedAccount(address)": [
        {
          "details": "The caller account is not authorized to perform an operation."
        }
      ]
    },
    "kind": "dev",
    "methods": {
      "owner()": {
        "details": "Returns the address of the current owner."
      },
      "renounceOwnership()": {
        "details": "Leaves the contract without owner. It will not be possible to call `onlyOwner` functions. Can only be called by the current owner. NOTE: Renouncing ownership will leave the contract without an owner, thereby disabling any functionality that is only available to the owner."
      },
      "transferOwnership(address)": {
        "details": "Transfers ownership of the contract to a new account (`newOwner`). Can only be called by the current owner."
      }
    },
    "version": 1
  },
  "userdoc": {
    "kind": "user",
    "methods": {},
    "version": 1
  },
  "storageLayout": {
    "storage": [
      {
        "astId": 162,
        "contract": "contracts/RandomWinnerGame.sol:RandomWinnerGame",
        "label": "_owner",
        "offset": 0,
        "slot": "0",
        "type": "t_address"
      },
      {
        "astId": 3733,
        "contract": "contracts/RandomWinnerGame.sol:RandomWinnerGame",
        "label": "games",
        "offset": 0,
        "slot": "1",
        "type": "t_mapping(t_uint256,t_struct(Game)3728_storage)"
      },
      {
        "astId": 3737,
        "contract": "contracts/RandomWinnerGame.sol:RandomWinnerGame",
        "label": "holdingGame",
        "offset": 0,
        "slot": "2",
        "type": "t_mapping(t_address,t_uint256)"
      },
      {
        "astId": 3741,
        "contract": "contracts/RandomWinnerGame.sol:RandomWinnerGame",
        "label": "requestIds",
        "offset": 0,
        "slot": "3",
        "type": "t_mapping(t_uint256,t_address)"
      },
      {
        "astId": 3744,
        "contract": "contracts/RandomWinnerGame.sol:RandomWinnerGame",
        "label": "totalGames",
        "offset": 0,
        "slot": "4",
        "type": "t_uint256"
      },
      {
        "astId": 3747,
        "contract": "contracts/RandomWinnerGame.sol:RandomWinnerGame",
        "label": "gasLimit",
        "offset": 0,
        "slot": "5",
        "type": "t_uint32"
      },
      {
        "astId": 3750,
        "contract": "contracts/RandomWinnerGame.sol:RandomWinnerGame",
        "label": "Coordinator",
        "offset": 4,
        "slot": "5",
        "type": "t_contract(VRFCoordinatorV2Interface)153"
      },
      {
        "astId": 3752,
        "contract": "contracts/RandomWinnerGame.sol:RandomWinnerGame",
        "label": "subscriptionId",
        "offset": 24,
        "slot": "5",
        "type": "t_uint64"
      },
      {
        "astId": 3754,
        "contract": "contracts/RandomWinnerGame.sol:RandomWinnerGame",
        "label": "keyHash",
        "offset": 0,
        "slot": "6",
        "type": "t_bytes32"
      }
    ],
    "types": {
      "t_address": {
        "encoding": "inplace",
        "label": "address",
        "numberOfBytes": "20"
      },
      "t_array(t_address)dyn_storage": {
        "base": "t_address",
        "encoding": "dynamic_array",
        "label": "address[]",
        "numberOfBytes": "32"
      },
      "t_bytes32": {
        "encoding": "inplace",
        "label": "bytes32",
        "numberOfBytes": "32"
      },
      "t_contract(VRFCoordinatorV2Interface)153": {
        "encoding": "inplace",
        "label": "contract VRFCoordinatorV2Interface",
        "numberOfBytes": "20"
      },
      "t_enum(GameStatus)3709": {
        "encoding": "inplace",
        "label": "enum RandomWinnerGame.GameStatus",
        "numberOfBytes": "1"
      },
      "t_mapping(t_address,t_uint256)": {
        "encoding": "mapping",
        "key": "t_address",
        "label": "mapping(address => uint256)",
        "numberOfBytes": "32",
        "value": "t_uint256"
      },
      "t_mapping(t_uint256,t_address)": {
        "encoding": "mapping",
        "key": "t_uint256",
        "label": "mapping(uint256 => address)",
        "numberOfBytes": "32",
        "value": "t_address"
      },
      "t_mapping(t_uint256,t_struct(Game)3728_storage)": {
        "encoding": "mapping",
        "key": "t_uint256",
        "label": "mapping(uint256 => struct RandomWinnerGame.Game)",
        "numberOfBytes": "32",
        "value": "t_struct(Game)3728_storage"
      },
      "t_struct(Game)3728_storage": {
        "encoding": "inplace",
        "label": "struct RandomWinnerGame.Game",
        "members": [
          {
            "astId": 3711,
            "contract": "contracts/RandomWinnerGame.sol:RandomWinnerGame",
            "label": "gameId",
            "offset": 0,
            "slot": "0",
            "type": "t_uint256"
          },
          {
            "astId": 3714,
            "contract": "contracts/RandomWinnerGame.sol:RandomWinnerGame",
            "label": "status",
            "offset": 0,
            "slot": "1",
            "type": "t_enum(GameStatus)3709"
          },
          {
            "astId": 3716,
            "contract": "contracts/RandomWinnerGame.sol:RandomWinnerGame",
            "label": "maxPlayers",
            "offset": 0,
            "slot": "2",
            "type": "t_uint256"
          },
          {
            "astId": 3718,
            "contract": "contracts/RandomWinnerGame.sol:RandomWinnerGame",
            "label": "entryFeeNumerator",
            "offset": 0,
            "slot": "3",
            "type": "t_uint256"
          },
          {
            "astId": 3720,
            "contract": "contracts/RandomWinnerGame.sol:RandomWinnerGame",
            "label": "entryFeeDenominator",
            "offset": 0,
            "slot": "4",
            "type": "t_uint256"
          },
          {
            "astId": 3723,
            "contract": "contracts/RandomWinnerGame.sol:RandomWinnerGame",
            "label": "players",
            "offset": 0,
            "slot": "5",
            "type": "t_array(t_address)dyn_storage"
          },
          {
            "astId": 3725,
            "contract": "contracts/RandomWinnerGame.sol:RandomWinnerGame",
            "label": "winner",
            "offset": 0,
            "slot": "6",
            "type": "t_address"
          },
          {
            "astId": 3727,
            "contract": "contracts/RandomWinnerGame.sol:RandomWinnerGame",
            "label": "owner",
            "offset": 0,
            "slot": "7",
            "type": "t_address"
          }
        ],
        "numberOfBytes": "256"
      },
      "t_uint256": {
        "encoding": "inplace",
        "label": "uint256",
        "numberOfBytes": "32"
      },
      "t_uint32": {
        "encoding": "inplace",
        "label": "uint32",
        "numberOfBytes": "4"
      },
      "t_uint64": {
        "encoding": "inplace",
        "label": "uint64",
        "numberOfBytes": "8"
      }
    }
  }
}