{
  "address": "0x8cC9d7cA44191D30E130d7E90ADE94566bCf9d9b",
  "abi": [
    {
      "inputs": [
        {
          "internalType": "address",
          "name": "_nftMarketplace",
          "type": "address"
        },
        {
          "internalType": "address",
          "name": "_cryptoDevsNFT",
          "type": "address"
        }
      ],
      "stateMutability": "nonpayable",
      "type": "constructor"
    },
    {
      "anonymous": false,
      "inputs": [
        {
          "indexed": false,
          "internalType": "string",
          "name": "msg",
          "type": "string"
        },
        {
          "indexed": false,
          "internalType": "uint256",
          "name": "amount",
          "type": "uint256"
        },
        {
          "indexed": false,
          "internalType": "address",
          "name": "sender",
          "type": "address"
        }
      ],
      "name": "Log",
      "type": "event"
    },
    {
      "anonymous": false,
      "inputs": [
        {
          "indexed": true,
          "internalType": "address",
          "name": "previousOwner",
          "type": "address"
        },
        {
          "indexed": true,
          "internalType": "address",
          "name": "newOwner",
          "type": "address"
        }
      ],
      "name": "OwnershipTransferred",
      "type": "event"
    },
    {
      "stateMutability": "payable",
      "type": "fallback"
    },
    {
      "inputs": [
        {
          "internalType": "uint256",
          "name": "_nftTokenId",
          "type": "uint256"
        }
      ],
      "name": "createProposal",
      "outputs": [
        {
          "internalType": "uint256",
          "name": "",
          "type": "uint256"
        }
      ],
      "stateMutability": "nonpayable",
      "type": "function"
    },
    {
      "inputs": [
        {
          "internalType": "uint256",
          "name": "proposalId",
          "type": "uint256"
        }
      ],
      "name": "excuteProposal",
      "outputs": [],
      "stateMutability": "nonpayable",
      "type": "function"
    },
    {
      "inputs": [],
      "name": "owner",
      "outputs": [
        {
          "internalType": "address",
          "name": "",
          "type": "address"
        }
      ],
      "stateMutability": "view",
      "type": "function"
    },
    {
      "inputs": [
        {
          "internalType": "uint256",
          "name": "",
          "type": "uint256"
        }
      ],
      "name": "proposals",
      "outputs": [
        {
          "internalType": "uint256",
          "name": "nftTokenId",
          "type": "uint256"
        },
        {
          "internalType": "uint256",
          "name": "deadline",
          "type": "uint256"
        },
        {
          "internalType": "uint256",
          "name": "approvals",
          "type": "uint256"
        },
        {
          "internalType": "uint256",
          "name": "rejections",
          "type": "uint256"
        },
        {
          "internalType": "bool",
          "name": "excuted",
          "type": "bool"
        }
      ],
      "stateMutability": "view",
      "type": "function"
    },
    {
      "inputs": [],
      "name": "renounceOwnership",
      "outputs": [],
      "stateMutability": "nonpayable",
      "type": "function"
    },
    {
      "inputs": [],
      "name": "size",
      "outputs": [
        {
          "internalType": "uint256",
          "name": "",
          "type": "uint256"
        }
      ],
      "stateMutability": "view",
      "type": "function"
    },
    {
      "inputs": [
        {
          "internalType": "address",
          "name": "newOwner",
          "type": "address"
        }
      ],
      "name": "transferOwnership",
      "outputs": [],
      "stateMutability": "nonpayable",
      "type": "function"
    },
    {
      "inputs": [
        {
          "internalType": "uint256",
          "name": "proposalId",
          "type": "uint256"
        },
        {
          "internalType": "enum CryptoDevsNFTDao.Vote",
          "name": "vote",
          "type": "uint8"
        }
      ],
      "name": "voteOnProposal",
      "outputs": [],
      "stateMutability": "nonpayable",
      "type": "function"
    },
    {
      "inputs": [],
      "name": "withdrawEther",
      "outputs": [],
      "stateMutability": "nonpayable",
      "type": "function"
    },
    {
      "stateMutability": "payable",
      "type": "receive"
    }
  ],
  "transactionHash": "0xe6c5087a46219c387c1c5fc5f3c59114c6f59463197928f1ae635d3cafce39dc",
  "args": [
    "0xcBA6D366f61691ce4814f1B1af4A3289772353B2",
    "0xb66fc3C3868ee9A39f97144b8FBf70273d9eF96c"
  ],
  "numDeployments": 1,
  "solcInputHash": "9bb2aadf8962fca2231fc98fdd52cde1",
  "bytecode": "0x608060405234801561001057600080fd5b50604051611be9380380611be983398181016040528101906100329190610206565b61004e6100436100d760201b60201c565b6100df60201b60201c565b80600360006101000a81548173ffffffffffffffffffffffffffffffffffffffff021916908373ffffffffffffffffffffffffffffffffffffffff16021790555081600460006101000a81548173ffffffffffffffffffffffffffffffffffffffff021916908373ffffffffffffffffffffffffffffffffffffffff1602179055505050610246565b600033905090565b60008060009054906101000a900473ffffffffffffffffffffffffffffffffffffffff169050816000806101000a81548173ffffffffffffffffffffffffffffffffffffffff021916908373ffffffffffffffffffffffffffffffffffffffff1602179055508173ffffffffffffffffffffffffffffffffffffffff168173ffffffffffffffffffffffffffffffffffffffff167f8be0079c531659141344cd1fd0a4f28419497f9722a3daafe3b4186f6b6457e060405160405180910390a35050565b600080fd5b600073ffffffffffffffffffffffffffffffffffffffff82169050919050565b60006101d3826101a8565b9050919050565b6101e3816101c8565b81146101ee57600080fd5b50565b600081519050610200816101da565b92915050565b6000806040838503121561021d5761021c6101a3565b5b600061022b858286016101f1565b925050602061023c858286016101f1565b9150509250929050565b611994806102556000396000f3fe60806040526004361061008a5760003560e01c80638da5cb5b116100595780638da5cb5b146101b1578063949d225d146101dc578063c63f555214610207578063efafb22e14610230578063f2fde38b14610259576100ca565b8063013cf08b146101055780635a43dc0014610146578063715018a6146101835780637362377b1461019a576100ca565b366100ca577faf85a14b6e06dc1f57f4f75fb7bf96f82980e065fe76c00976d1bfe68032666234336040516100c0929190610fd2565b60405180910390a1005b7faf85a14b6e06dc1f57f4f75fb7bf96f82980e065fe76c00976d1bfe68032666234336040516100fb92919061105a565b60405180910390a1005b34801561011157600080fd5b5061012c600480360381019061012791906110c7565b610282565b60405161013d95949392919061110f565b60405180910390f35b34801561015257600080fd5b5061016d600480360381019061016891906110c7565b6102c5565b60405161017a9190611162565b60405180910390f35b34801561018f57600080fd5b506101986104e6565b005b3480156101a657600080fd5b506101af6104fa565b005b3480156101bd57600080fd5b506101c6610607565b6040516101d3919061117d565b60405180910390f35b3480156101e857600080fd5b506101f1610630565b6040516101fe9190611162565b60405180910390f35b34801561021357600080fd5b5061022e600480360381019061022991906110c7565b610636565b005b34801561023c57600080fd5b50610257600480360381019061025291906111bd565b61098d565b005b34801561026557600080fd5b50610280600480360381019061027b9190611229565b610d4e565b005b60016020528060005260406000206000915090508060000154908060010154908060020154908060030154908060040160009054906101000a900460ff16905085565b600080600360009054906101000a900473ffffffffffffffffffffffffffffffffffffffff1673ffffffffffffffffffffffffffffffffffffffff166370a08231336040518263ffffffff1660e01b8152600401610323919061117d565b602060405180830381865afa158015610340573d6000803e3d6000fd5b505050506040513d601f19601f82011682018060405250810190610364919061126b565b116103a4576040517f08c379a000000000000000000000000000000000000000000000000000000000815260040161039b906112e4565b60405180910390fd5b600460009054906101000a900473ffffffffffffffffffffffffffffffffffffffff1673ffffffffffffffffffffffffffffffffffffffff166396e494e8836040518263ffffffff1660e01b81526004016103ff9190611162565b602060405180830381865afa15801561041c573d6000803e3d6000fd5b505050506040513d601f19601f820116820180604052508101906104409190611330565b61047f576040517f08c379a0000000000000000000000000000000000000000000000000000000008152600401610476906113a9565b60405180910390fd5b6000600160006002548152602001908152602001600020905082816000018190555061012c426104af91906113f8565b8160010181905550600260008154809291906104ca9061142c565b919050555060016002546104de9190611474565b915050919050565b6104ee610dd1565b6104f86000610e4f565b565b610502610dd1565b60004790506000610511610607565b905060008211610556576040517f08c379a000000000000000000000000000000000000000000000000000000000815260040161054d9061151a565b60405180910390fd5b60008173ffffffffffffffffffffffffffffffffffffffff168360405161057c9061156b565b60006040518083038185875af1925050503d80600081146105b9576040519150601f19603f3d011682016040523d82523d6000602084013e6105be565b606091505b5050905080610602576040517f08c379a00000000000000000000000000000000000000000000000000000000081526004016105f9906115cc565b60405180910390fd5b505050565b60008060009054906101000a900473ffffffffffffffffffffffffffffffffffffffff16905090565b60025481565b6000600360009054906101000a900473ffffffffffffffffffffffffffffffffffffffff1673ffffffffffffffffffffffffffffffffffffffff166370a08231336040518263ffffffff1660e01b8152600401610693919061117d565b602060405180830381865afa1580156106b0573d6000803e3d6000fd5b505050506040513d601f19601f820116820180604052508101906106d4919061126b565b11610714576040517f08c379a000000000000000000000000000000000000000000000000000000000815260040161070b906112e4565b60405180910390fd5b80426001600083815260200190815260200160002060010154111561076e576040517f08c379a000000000000000000000000000000000000000000000000000000000815260040161076590611638565b60405180910390fd5b600015156001600083815260200190815260200160002060040160009054906101000a900460ff161515146107d8576040517f08c379a00000000000000000000000000000000000000000000000000000000081526004016107cf906116a4565b60405180910390fd5b600060016000848152602001908152602001600020905080600301548160020154111561096b576000600460009054906101000a900473ffffffffffffffffffffffffffffffffffffffff1673ffffffffffffffffffffffffffffffffffffffff166398d5fdca6040518163ffffffff1660e01b8152600401602060405180830381865afa15801561086e573d6000803e3d6000fd5b505050506040513d601f19601f82011682018060405250810190610892919061126b565b9050804710156108d7576040517f08c379a00000000000000000000000000000000000000000000000000000000081526004016108ce90611710565b60405180910390fd5b600460009054906101000a900473ffffffffffffffffffffffffffffffffffffffff1673ffffffffffffffffffffffffffffffffffffffff1663efef39a18284600001546040518363ffffffff1660e01b81526004016109379190611162565b6000604051808303818588803b15801561095057600080fd5b505af1158015610964573d6000803e3d6000fd5b5050505050505b60018160040160006101000a81548160ff021916908315150217905550505050565b6000600360009054906101000a900473ffffffffffffffffffffffffffffffffffffffff1673ffffffffffffffffffffffffffffffffffffffff166370a08231336040518263ffffffff1660e01b81526004016109ea919061117d565b602060405180830381865afa158015610a07573d6000803e3d6000fd5b505050506040513d601f19601f82011682018060405250810190610a2b919061126b565b11610a6b576040517f08c379a0000000000000000000000000000000000000000000000000000000008152600401610a62906112e4565b60405180910390fd5b8142600160008381526020019081526020016000206001015411610ac4576040517f08c379a0000000000000000000000000000000000000000000000000000000008152600401610abb9061177c565b60405180910390fd5b60006001600085815260200190815260200160002090506000600360009054906101000a900473ffffffffffffffffffffffffffffffffffffffff1673ffffffffffffffffffffffffffffffffffffffff166370a08231336040518263ffffffff1660e01b8152600401610b38919061117d565b602060405180830381865afa158015610b55573d6000803e3d6000fd5b505050506040513d601f19601f82011682018060405250810190610b79919061126b565b90506000805b82811015610c9a576000600360009054906101000a900473ffffffffffffffffffffffffffffffffffffffff1673ffffffffffffffffffffffffffffffffffffffff16632f745c5933846040518363ffffffff1660e01b8152600401610be692919061179c565b602060405180830381865afa158015610c03573d6000803e3d6000fd5b505050506040513d601f19601f82011682018060405250810190610c27919061126b565b90506000151585600501600083815260200190815260200160002060009054906101000a900460ff16151503610c8c578280610c629061142c565b9350506001151585600501600083815260200190815260200160002060009054906101000a905050505b508080600101915050610b7f565b5060008111610cde576040517f08c379a0000000000000000000000000000000000000000000000000000000008152600401610cd590611811565b60405180910390fd5b60006001811115610cf257610cf1611831565b5b856001811115610d0557610d04611831565b5b03610d2a5780836002016000828254610d1e91906113f8565b92505081905550610d46565b80836003016000828254610d3e91906113f8565b925050819055505b505050505050565b610d56610dd1565b600073ffffffffffffffffffffffffffffffffffffffff168173ffffffffffffffffffffffffffffffffffffffff1603610dc5576040517f08c379a0000000000000000000000000000000000000000000000000000000008152600401610dbc906118d2565b60405180910390fd5b610dce81610e4f565b50565b610dd9610f13565b73ffffffffffffffffffffffffffffffffffffffff16610df7610607565b73ffffffffffffffffffffffffffffffffffffffff1614610e4d576040517f08c379a0000000000000000000000000000000000000000000000000000000008152600401610e449061193e565b60405180910390fd5b565b60008060009054906101000a900473ffffffffffffffffffffffffffffffffffffffff169050816000806101000a81548173ffffffffffffffffffffffffffffffffffffffff021916908373ffffffffffffffffffffffffffffffffffffffff1602179055508173ffffffffffffffffffffffffffffffffffffffff168173ffffffffffffffffffffffffffffffffffffffff167f8be0079c531659141344cd1fd0a4f28419497f9722a3daafe3b4186f6b6457e060405160405180910390a35050565b600033905090565b600082825260208201905092915050565b7f726563656976652063616c6c6564000000000000000000000000000000000000600082015250565b6000610f62600e83610f1b565b9150610f6d82610f2c565b602082019050919050565b6000819050919050565b610f8b81610f78565b82525050565b600073ffffffffffffffffffffffffffffffffffffffff82169050919050565b6000610fbc82610f91565b9050919050565b610fcc81610fb1565b82525050565b60006060820190508181036000830152610feb81610f55565b9050610ffa6020830185610f82565b6110076040830184610fc3565b9392505050565b7f66616c6c6261636b2063616c6c65640000000000000000000000000000000000600082015250565b6000611044600f83610f1b565b915061104f8261100e565b602082019050919050565b6000606082019050818103600083015261107381611037565b90506110826020830185610f82565b61108f6040830184610fc3565b9392505050565b600080fd5b6110a481610f78565b81146110af57600080fd5b50565b6000813590506110c18161109b565b92915050565b6000602082840312156110dd576110dc611096565b5b60006110eb848285016110b2565b91505092915050565b60008115159050919050565b611109816110f4565b82525050565b600060a0820190506111246000830188610f82565b6111316020830187610f82565b61113e6040830186610f82565b61114b6060830185610f82565b6111586080830184611100565b9695505050505050565b60006020820190506111776000830184610f82565b92915050565b60006020820190506111926000830184610fc3565b92915050565b600281106111a557600080fd5b50565b6000813590506111b781611198565b92915050565b600080604083850312156111d4576111d3611096565b5b60006111e2858286016110b2565b92505060206111f3858286016111a8565b9150509250929050565b61120681610fb1565b811461121157600080fd5b50565b600081359050611223816111fd565b92915050565b60006020828403121561123f5761123e611096565b5b600061124d84828501611214565b91505092915050565b6000815190506112658161109b565b92915050565b60006020828403121561128157611280611096565b5b600061128f84828501611256565b91505092915050565b7f4e6f7420612044616f204d656d62657200000000000000000000000000000000600082015250565b60006112ce601083610f1b565b91506112d982611298565b602082019050919050565b600060208201905081810360008301526112fd816112c1565b9050919050565b61130d816110f4565b811461131857600080fd5b50565b60008151905061132a81611304565b92915050565b60006020828403121561134657611345611096565b5b60006113548482850161131b565b91505092915050565b7f4e465420546f6b656e204e6f7420417661696c61626c65000000000000000000600082015250565b6000611393601783610f1b565b915061139e8261135d565b602082019050919050565b600060208201905081810360008301526113c281611386565b9050919050565b7f4e487b7100000000000000000000000000000000000000000000000000000000600052601160045260246000fd5b600061140382610f78565b915061140e83610f78565b9250828201905080821115611426576114256113c9565b5b92915050565b600061143782610f78565b91507fffffffffffffffffffffffffffffffffffffffffffffffffffffffffffffffff8203611469576114686113c9565b5b600182019050919050565b600061147f82610f78565b915061148a83610f78565b92508282039050818111156114a2576114a16113c9565b5b92915050565b7f4e6f7468696e6720746f2077697468647261772c20636f6e747261637420626160008201527f6c616e636520656d707479000000000000000000000000000000000000000000602082015250565b6000611504602b83610f1b565b915061150f826114a8565b604082019050919050565b60006020820190508181036000830152611533816114f7565b9050919050565b600081905092915050565b50565b600061155560008361153a565b915061156082611545565b600082019050919050565b600061157682611548565b9150819050919050565b7f4641494c45445f544f5f57495448445241575f45544845520000000000000000600082015250565b60006115b6601883610f1b565b91506115c182611580565b602082019050919050565b600060208201905081810360008301526115e5816115a9565b9050919050565b7f50726f706f73616c20646561646c696e65206e6f742065786365656465640000600082015250565b6000611622601e83610f1b565b915061162d826115ec565b602082019050919050565b6000602082019050818103600083015261165181611615565b9050919050565b7f50726f706f73616c206861732062656564206578637574656400000000000000600082015250565b600061168e601983610f1b565b915061169982611658565b602082019050919050565b600060208201905081810360008301526116bd81611681565b9050919050565b7f4e6f7420656e6f75676820666f756e6473000000000000000000000000000000600082015250565b60006116fa601183610f1b565b9150611705826116c4565b602082019050919050565b60006020820190508181036000830152611729816116ed565b9050919050565b7f50726f706f73616c20646561646c696e65206578636565646564000000000000600082015250565b6000611766601a83610f1b565b915061177182611730565b602082019050919050565b6000602082019050818103600083015261179581611759565b9050919050565b60006040820190506117b16000830185610fc3565b6117be6020830184610f82565b9392505050565b7f414c52454144595f564f54454400000000000000000000000000000000000000600082015250565b60006117fb600d83610f1b565b9150611806826117c5565b602082019050919050565b6000602082019050818103600083015261182a816117ee565b9050919050565b7f4e487b7100000000000000000000000000000000000000000000000000000000600052602160045260246000fd5b7f4f776e61626c653a206e6577206f776e657220697320746865207a65726f206160008201527f6464726573730000000000000000000000000000000000000000000000000000602082015250565b60006118bc602683610f1b565b91506118c782611860565b604082019050919050565b600060208201905081810360008301526118eb816118af565b9050919050565b7f4f776e61626c653a2063616c6c6572206973206e6f7420746865206f776e6572600082015250565b6000611928602083610f1b565b9150611933826118f2565b602082019050919050565b600060208201905081810360008301526119578161191b565b905091905056fea2646970667358221220aacffffa9e6941f4627594fe17d38e0afdfcafce985a7533b8ecae4a15330e2a64736f6c63430008190033",
  "devdoc": {
    "kind": "dev",
    "methods": {
      "createProposal(uint256)": {
        "details": "createProposal() allow holders of CryptoDevs to create a new proposal in the DAO",
        "params": {
          "_nftTokenId": "- the tokenId of NFT to be purchased from nftMarketplace if proposal passed;"
        },
        "returns": {
          "_0": "Returns the proposal index for the newly created proposal;"
        }
      },
      "owner()": {
        "details": "Returns the address of the current owner."
      },
      "renounceOwnership()": {
        "details": "Leaves the contract without owner. It will not be possible to call `onlyOwner` functions. Can only be called by the current owner. NOTE: Renouncing ownership will leave the contract without an owner, thereby disabling any functionality that is only available to the owner."
      },
      "transferOwnership(address)": {
        "details": "Transfers ownership of the contract to a new account (`newOwner`). Can only be called by the current owner."
      }
    },
    "version": 1
  },
  "userdoc": {
    "kind": "user",
    "methods": {},
    "version": 1
  },
  "storageLayout": {
    "storage": [
      {
        "astId": 7,
        "contract": "contracts/CryptoDevsDao.sol:CryptoDevsNFTDao",
        "label": "_owner",
        "offset": 0,
        "slot": "0",
        "type": "t_address"
      },
      {
        "astId": 3246,
        "contract": "contracts/CryptoDevsDao.sol:CryptoDevsNFTDao",
        "label": "proposals",
        "offset": 0,
        "slot": "1",
        "type": "t_mapping(t_uint256,t_struct(Proposal)3239_storage)"
      },
      {
        "astId": 3248,
        "contract": "contracts/CryptoDevsDao.sol:CryptoDevsNFTDao",
        "label": "size",
        "offset": 0,
        "slot": "2",
        "type": "t_uint256"
      },
      {
        "astId": 3251,
        "contract": "contracts/CryptoDevsDao.sol:CryptoDevsNFTDao",
        "label": "cryptoDevsNFT",
        "offset": 0,
        "slot": "3",
        "type": "t_contract(ICryptoDevsNFT)3203"
      },
      {
        "astId": 3254,
        "contract": "contracts/CryptoDevsDao.sol:CryptoDevsNFTDao",
        "label": "nftMarketplace",
        "offset": 0,
        "slot": "4",
        "type": "t_contract(IFakeNFTMarketplace)3224"
      }
    ],
    "types": {
      "t_address": {
        "encoding": "inplace",
        "label": "address",
        "numberOfBytes": "20"
      },
      "t_bool": {
        "encoding": "inplace",
        "label": "bool",
        "numberOfBytes": "1"
      },
      "t_contract(ICryptoDevsNFT)3203": {
        "encoding": "inplace",
        "label": "contract ICryptoDevsNFT",
        "numberOfBytes": "20"
      },
      "t_contract(IFakeNFTMarketplace)3224": {
        "encoding": "inplace",
        "label": "contract IFakeNFTMarketplace",
        "numberOfBytes": "20"
      },
      "t_mapping(t_uint256,t_bool)": {
        "encoding": "mapping",
        "key": "t_uint256",
        "label": "mapping(uint256 => bool)",
        "numberOfBytes": "32",
        "value": "t_bool"
      },
      "t_mapping(t_uint256,t_struct(Proposal)3239_storage)": {
        "encoding": "mapping",
        "key": "t_uint256",
        "label": "mapping(uint256 => struct Proposal)",
        "numberOfBytes": "32",
        "value": "t_struct(Proposal)3239_storage"
      },
      "t_struct(Proposal)3239_storage": {
        "encoding": "inplace",
        "label": "struct Proposal",
        "members": [
          {
            "astId": 3226,
            "contract": "contracts/CryptoDevsDao.sol:CryptoDevsNFTDao",
            "label": "nftTokenId",
            "offset": 0,
            "slot": "0",
            "type": "t_uint256"
          },
          {
            "astId": 3228,
            "contract": "contracts/CryptoDevsDao.sol:CryptoDevsNFTDao",
            "label": "deadline",
            "offset": 0,
            "slot": "1",
            "type": "t_uint256"
          },
          {
            "astId": 3230,
            "contract": "contracts/CryptoDevsDao.sol:CryptoDevsNFTDao",
            "label": "approvals",
            "offset": 0,
            "slot": "2",
            "type": "t_uint256"
          },
          {
            "astId": 3232,
            "contract": "contracts/CryptoDevsDao.sol:CryptoDevsNFTDao",
            "label": "rejections",
            "offset": 0,
            "slot": "3",
            "type": "t_uint256"
          },
          {
            "astId": 3234,
            "contract": "contracts/CryptoDevsDao.sol:CryptoDevsNFTDao",
            "label": "excuted",
            "offset": 0,
            "slot": "4",
            "type": "t_bool"
          },
          {
            "astId": 3238,
            "contract": "contracts/CryptoDevsDao.sol:CryptoDevsNFTDao",
            "label": "voters",
            "offset": 0,
            "slot": "5",
            "type": "t_mapping(t_uint256,t_bool)"
          }
        ],
        "numberOfBytes": "192"
      },
      "t_uint256": {
        "encoding": "inplace",
        "label": "uint256",
        "numberOfBytes": "32"
      }
    }
  }
}